{
  "address": "0x08B87749b379f5BCA1d74A7B3d4e9f3DeD41C706",
  "abi": [
    {
      "inputs": [
        {
          "internalType": "address",
          "name": "_uniswapV3Factory",
          "type": "address"
        }
      ],
      "stateMutability": "nonpayable",
      "type": "constructor"
    },
    {
      "anonymous": false,
      "inputs": [
        {
          "indexed": true,
          "internalType": "address",
          "name": "previousManager",
          "type": "address"
        },
        {
          "indexed": true,
          "internalType": "address",
          "name": "newManager",
          "type": "address"
        }
      ],
      "name": "OwnershipTransferred",
      "type": "event"
    },
    {
      "anonymous": false,
      "inputs": [
        {
          "indexed": true,
          "internalType": "address",
          "name": "uniPool",
          "type": "address"
        },
        {
          "indexed": true,
          "internalType": "address",
          "name": "manager",
          "type": "address"
        },
        {
          "indexed": true,
          "internalType": "address",
          "name": "pool",
          "type": "address"
        }
      ],
      "name": "PoolCreated",
      "type": "event"
    },
    {
      "anonymous": false,
      "inputs": [
        {
          "indexed": false,
          "internalType": "address",
          "name": "previosGelatoDeployer",
          "type": "address"
        },
        {
          "indexed": false,
          "internalType": "address",
          "name": "newGelatoDeployer",
          "type": "address"
        }
      ],
      "name": "UpdateGelatoDeployer",
      "type": "event"
    },
    {
      "anonymous": false,
      "inputs": [
        {
          "indexed": false,
          "internalType": "address",
          "name": "previousImplementation",
          "type": "address"
        },
        {
          "indexed": false,
          "internalType": "address",
          "name": "newImplementation",
          "type": "address"
        }
      ],
      "name": "UpdatePoolImplementation",
      "type": "event"
    },
    {
      "inputs": [
        {
          "internalType": "address",
          "name": "tokenA",
          "type": "address"
        },
        {
          "internalType": "address",
          "name": "tokenB",
          "type": "address"
        },
        {
          "internalType": "uint24",
          "name": "uniFee",
          "type": "uint24"
        },
        {
          "internalType": "uint16",
          "name": "managerFee",
          "type": "uint16"
        },
        {
          "internalType": "int24",
          "name": "lowerTick",
          "type": "int24"
        },
        {
          "internalType": "int24",
          "name": "upperTick",
          "type": "int24"
        }
      ],
      "name": "createManagedPool",
      "outputs": [
        {
          "internalType": "address",
          "name": "pool",
          "type": "address"
        }
      ],
      "stateMutability": "nonpayable",
      "type": "function"
    },
    {
      "inputs": [
        {
          "internalType": "address",
          "name": "tokenA",
          "type": "address"
        },
        {
          "internalType": "address",
          "name": "tokenB",
          "type": "address"
        },
        {
          "internalType": "uint24",
          "name": "uniFee",
          "type": "uint24"
        },
        {
          "internalType": "int24",
          "name": "lowerTick",
          "type": "int24"
        },
        {
          "internalType": "int24",
          "name": "upperTick",
          "type": "int24"
        }
      ],
      "name": "createPool",
      "outputs": [
        {
          "internalType": "address",
          "name": "pool",
          "type": "address"
        }
      ],
      "stateMutability": "nonpayable",
      "type": "function"
    },
    {
      "inputs": [],
      "name": "factory",
      "outputs": [
        {
          "internalType": "address",
          "name": "",
          "type": "address"
        }
      ],
      "stateMutability": "view",
      "type": "function"
    },
    {
      "inputs": [],
      "name": "gelatoDeployer",
      "outputs": [
        {
          "internalType": "address",
          "name": "",
          "type": "address"
        }
      ],
      "stateMutability": "view",
      "type": "function"
    },
    {
      "inputs": [],
      "name": "getDeployers",
      "outputs": [
        {
          "internalType": "address[]",
          "name": "",
          "type": "address[]"
        }
      ],
      "stateMutability": "view",
      "type": "function"
    },
    {
      "inputs": [],
      "name": "getGelatoPools",
      "outputs": [
        {
          "internalType": "address[]",
          "name": "",
          "type": "address[]"
        }
      ],
      "stateMutability": "view",
      "type": "function"
    },
    {
      "inputs": [
        {
          "internalType": "address",
          "name": "deployer",
          "type": "address"
        }
      ],
      "name": "getPools",
      "outputs": [
        {
          "internalType": "address[]",
          "name": "",
          "type": "address[]"
        }
      ],
      "stateMutability": "view",
      "type": "function"
    },
    {
      "inputs": [
        {
          "internalType": "address",
          "name": "pool",
          "type": "address"
        }
      ],
      "name": "getProxyAdmin",
      "outputs": [
        {
          "internalType": "address",
          "name": "",
          "type": "address"
        }
      ],
      "stateMutability": "view",
      "type": "function"
    },
    {
      "inputs": [
        {
          "internalType": "address",
          "name": "token0",
          "type": "address"
        },
        {
          "internalType": "address",
          "name": "token1",
          "type": "address"
        }
      ],
      "name": "getTokenName",
      "outputs": [
        {
          "internalType": "string",
          "name": "",
          "type": "string"
        }
      ],
      "stateMutability": "view",
      "type": "function"
    },
    {
      "inputs": [
        {
          "internalType": "address",
          "name": "_implementation",
          "type": "address"
        },
        {
          "internalType": "address",
          "name": "_gelatoDeployer",
          "type": "address"
        },
        {
          "internalType": "address",
          "name": "_manager_",
          "type": "address"
        }
      ],
      "name": "initialize",
      "outputs": [],
      "stateMutability": "nonpayable",
      "type": "function"
    },
    {
      "inputs": [
        {
          "internalType": "address",
          "name": "pool",
          "type": "address"
        }
      ],
      "name": "isPoolImmutable",
      "outputs": [
        {
          "internalType": "bool",
          "name": "",
          "type": "bool"
        }
      ],
      "stateMutability": "view",
      "type": "function"
    },
    {
      "inputs": [
        {
          "internalType": "address[]",
          "name": "pools",
          "type": "address[]"
        }
      ],
      "name": "makePoolsImmutable",
      "outputs": [],
      "stateMutability": "nonpayable",
      "type": "function"
    },
    {
      "inputs": [],
      "name": "manager",
      "outputs": [
        {
          "internalType": "address",
          "name": "",
          "type": "address"
        }
      ],
      "stateMutability": "view",
      "type": "function"
    },
    {
      "inputs": [],
      "name": "numDeployers",
      "outputs": [
        {
          "internalType": "uint256",
          "name": "",
          "type": "uint256"
        }
      ],
      "stateMutability": "view",
      "type": "function"
    },
    {
      "inputs": [],
      "name": "numPools",
      "outputs": [
        {
          "internalType": "uint256",
          "name": "result",
          "type": "uint256"
        }
      ],
      "stateMutability": "view",
      "type": "function"
    },
    {
      "inputs": [
        {
          "internalType": "address",
          "name": "deployer",
          "type": "address"
        }
      ],
      "name": "numPools",
      "outputs": [
        {
          "internalType": "uint256",
          "name": "",
          "type": "uint256"
        }
      ],
      "stateMutability": "view",
      "type": "function"
    },
    {
      "inputs": [],
      "name": "poolImplementation",
      "outputs": [
        {
          "internalType": "address",
          "name": "",
          "type": "address"
        }
      ],
      "stateMutability": "view",
      "type": "function"
    },
    {
      "inputs": [],
      "name": "renounceOwnership",
      "outputs": [],
      "stateMutability": "nonpayable",
      "type": "function"
    },
    {
      "inputs": [
        {
          "internalType": "address",
          "name": "nextGelatoDeployer",
          "type": "address"
        }
      ],
      "name": "setGelatoDeployer",
      "outputs": [],
      "stateMutability": "nonpayable",
      "type": "function"
    },
    {
      "inputs": [
        {
          "internalType": "address",
          "name": "nextImplementation",
          "type": "address"
        }
      ],
      "name": "setPoolImplementation",
      "outputs": [],
      "stateMutability": "nonpayable",
      "type": "function"
    },
    {
      "inputs": [
        {
          "internalType": "address",
          "name": "newOwner",
          "type": "address"
        }
      ],
      "name": "transferOwnership",
      "outputs": [],
      "stateMutability": "nonpayable",
      "type": "function"
    },
    {
      "inputs": [
        {
          "internalType": "address[]",
          "name": "pools",
          "type": "address[]"
        }
      ],
      "name": "upgradePools",
      "outputs": [],
      "stateMutability": "nonpayable",
      "type": "function"
    },
    {
      "inputs": [
        {
          "internalType": "address[]",
          "name": "pools",
          "type": "address[]"
        },
        {
          "internalType": "bytes[]",
          "name": "datas",
          "type": "bytes[]"
        }
      ],
      "name": "upgradePoolsAndCall",
      "outputs": [],
      "stateMutability": "nonpayable",
      "type": "function"
    },
    {
      "inputs": [],
      "name": "version",
      "outputs": [
        {
          "internalType": "string",
          "name": "",
          "type": "string"
        }
      ],
      "stateMutability": "view",
      "type": "function"
    }
  ],
  "transactionHash": "0x6781c4397e848adc94917c88c7e33d5355795ed4d5c88dcd21bb1ab746790f07",
  "args": [
    "0x792edAdE80af5fC680d96a2eD80A44247D2Cf6Fd"
  ],
  "solcInputHash": "f1f932b5297d788fce5c0abb03e1e395",
  "bytecode": "0x60a060405234801561001057600080fd5b5060405161273838038061273883398101604081905261002f91610040565b6001600160a01b0316608052610070565b60006020828403121561005257600080fd5b81516001600160a01b038116811461006957600080fd5b9392505050565b6080516126a661009260003960008181610312015261103101526126a66000f3fe60806040523480156200001157600080fd5b5060043610620001425760003560e01c8063088933281462000147578063098eddb114620001605780630dfc574b146200017d578063260fc2b8146200019457806335c62bc214620001ab57806340aee04114620001b557806342f5de9914620001cc578063481c6a7514620001e357806354fd4d5014620001fc578063562b810314620002305780635c39f4671462000249578063607c12b51462000260578063715018a6146200026a57806383c60ac4146200027457806386238765146200028b57806395d807f1146200029f578063a958b89514620002c7578063bd30dfb914620002de578063c0c53b8b14620002f5578063c45a0155146200030c578063cefa77991462000334578063d6f748981462000348578063f2fde38b146200035f578063f3b7dead1462000376575b600080fd5b6200015e620001583660046200151e565b6200038d565b005b6200016a62000435565b6040519081526020015b60405180910390f35b6200015e6200018e3660046200160f565b62000448565b6200015e620001a5366004620016b0565b620005b0565b6200016a6200068a565b6200015e620001c6366004620016b0565b620006f5565b6200016a620001dd3660046200151e565b620007d3565b620001ed620007fc565b604051620001749190620016f0565b62000221604051806040016040528060058152602001640312e302e360dc1b81525081565b60405162000174919062001758565b6200023a6200080b565b6040516200017491906200176d565b6200023a6200025a3660046200151e565b62000820565b6200023a620008dd565b6200015e62000997565b620001ed62000285366004620017e5565b62000a04565b600254620001ed906001600160a01b031681565b620002b6620002b03660046200151e565b62000a22565b604051901515815260200162000174565b620001ed620002d836600462001878565b62000a3f565b62000221620002ef366004620018f2565b62000a5e565b6200015e6200030636600462001930565b62000bad565b620001ed7f000000000000000000000000000000000000000000000000000000000000000081565b600154620001ed906001600160a01b031681565b6200015e620003593660046200151e565b62000cb7565b6200015e620003703660046200151e565b62000d56565b620001ed620003873660046200151e565b62000e3d565b3362000398620007fc565b6001600160a01b031614620003ca5760405162461bcd60e51b8152600401620003c19062001982565b60405180910390fd5b6002546040517fb316078581b0eaf0714b47d13192560506acc3e23b5bf3b72d27248f173c9085916200040b916001600160a01b03909116908490620019c4565b60405180910390a1600280546001600160a01b0319166001600160a01b0392909216919091179055565b600062000443600362000ea4565b905090565b3362000453620007fc565b6001600160a01b0316146200047c5760405162461bcd60e51b8152600401620003c19062001982565b82518114620004c95760405162461bcd60e51b81526020600482015260186024820152770dad2e6dac2e8c6d0d2dcce40c2e4e4c2f240d8cadccee8d60431b6044820152606401620003c1565b60005b8351811015620005aa57838181518110620004eb57620004eb620019de565b60200260200101516001600160a01b0316634f1ef286600160009054906101000a90046001600160a01b03168585858181106200052c576200052c620019de565b9050602002810190620005409190620019f4565b6040518463ffffffff1660e01b8152600401620005609392919062001a3d565b600060405180830381600087803b1580156200057b57600080fd5b505af115801562000590573d6000803e3d6000fd5b505050508080620005a19062001a93565b915050620004cc565b50505050565b33620005bb620007fc565b6001600160a01b031614620005e45760405162461bcd60e51b8152600401620003c19062001982565b60005b81518110156200068657818181518110620006065762000606620019de565b60200260200101516001600160a01b0316638356ca4f60006040518263ffffffff1660e01b81526004016200063c9190620016f0565b600060405180830381600087803b1580156200065757600080fd5b505af11580156200066c573d6000803e3d6000fd5b5050505080806200067d9062001a93565b915050620005e7565b5050565b60008062000697620008dd565b905060005b8151811015620006f057620006cd828281518110620006bf57620006bf620019de565b6020026020010151620007d3565b620006d9908462001aaf565b925080620006e78162001a93565b9150506200069c565b505090565b3362000700620007fc565b6001600160a01b031614620007295760405162461bcd60e51b8152600401620003c19062001982565b60005b815181101562000686578181815181106200074b576200074b620019de565b6020908102919091010151600154604051631b2ce7f360e11b81526001600160a01b0392831692633659cfe6926200078992911690600401620016f0565b600060405180830381600087803b158015620007a457600080fd5b505af1158015620007b9573d6000803e3d6000fd5b505050508080620007ca9062001a93565b9150506200072c565b6001600160a01b0381166000908152600560205260408120620007f69062000ea4565b92915050565b6000546001600160a01b031690565b60025460609062000443906001600160a01b03165b606060006200082f83620007d3565b90506000816001600160401b038111156200084e576200084e6200153e565b60405190808252806020026020018201604052801562000878578160200160208202803683370190505b50905060005b82811015620008d55762000893858262000eaf565b828281518110620008a857620008a8620019de565b6001600160a01b039092166020928302919091019091015280620008cc8162001a93565b9150506200087e565b509392505050565b60606000620008eb62000435565b90506000816001600160401b038111156200090a576200090a6200153e565b60405190808252806020026020018201604052801562000934578160200160208202803683370190505b50905060005b8281101562000990576200094e8162000eda565b828281518110620009635762000963620019de565b6001600160a01b039092166020928302919091019091015280620009878162001a93565b9150506200093a565b5092915050565b33620009a2620007fc565b6001600160a01b031614620009cb5760405162461bcd60e51b8152600401620003c19062001982565b600080546040516001600160a01b039091169060008051602062002651833981519152908390a3600080546001600160a01b0319169055565b600062000a178787878787873362000ee9565b979650505050505050565b600062000a2f8262000e3d565b6001600160a01b03161592915050565b600062000a5486868660008787600062000ee9565b9695505050505050565b60606000836001600160a01b03166395d89b416040518163ffffffff1660e01b8152600401600060405180830381865afa15801562000aa1573d6000803e3d6000fd5b505050506040513d6000823e601f3d908101601f1916820160405262000acb919081019062001ac5565b90506000836001600160a01b03166395d89b416040518163ffffffff1660e01b8152600401600060405180830381865afa15801562000b0e573d6000803e3d6000fd5b505050506040513d6000823e601f3d908101601f1916820160405262000b38919081019062001ac5565b905062000ba46040518060400160405280600f81526020016e023b2b630ba37902ab734b9bbb0b81608d1b81525083604051806040016040528060018152602001602f60f81b81525084604051806040016040528060038152602001620204c560ec1b81525062001243565b95945050505050565b600054600160a81b900460ff168062000bd05750600054600160a01b900460ff16155b62000c355760405162461bcd60e51b815260206004820152602e60248201527f496e697469616c697a61626c653a20636f6e747261637420697320616c72656160448201526d191e481a5b9a5d1a585b1a5e995960921b6064820152608401620003c1565b600054600160a81b900460ff1615801562000c60576000805461ffff60a01b191661010160a01b1790555b600180546001600160a01b038087166001600160a01b0319928316179092556002805486841690831617905560008054928516929091169190911790558015620005aa576000805460ff60a81b1916905550505050565b3362000cc2620007fc565b6001600160a01b03161462000ceb5760405162461bcd60e51b8152600401620003c19062001982565b6001546040517f0617fd31aa5ab95ec80eefc1eb61a2c477aa419d1d761b4e46f5f077e47852aa9162000d2c916001600160a01b03909116908490620019c4565b60405180910390a1600180546001600160a01b0319166001600160a01b0392909216919091179055565b3362000d61620007fc565b6001600160a01b03161462000d8a5760405162461bcd60e51b8152600401620003c19062001982565b6001600160a01b03811662000df35760405162461bcd60e51b815260206004820152602860248201527f4f776e61626c653a206e6577206d616e6167657220697320746865207a65726f604482015267206164647265737360c01b6064820152608401620003c1565b600080546040516001600160a01b03808516939216916000805160206200265183398151915291a3600080546001600160a01b0319166001600160a01b0392909216919091179055565b6000816001600160a01b0316633e47158c6040518163ffffffff1660e01b8152600401602060405180830381865afa15801562000e7e573d6000803e3d6000fd5b505050506040513d601f19601f82011682018060405250810190620007f6919062001b63565b6000620007f6825490565b6001600160a01b038216600090815260056020526040812062000ed390836200127a565b9392505050565b6000620007f66003836200127a565b600080600062000efa8a8a62001288565b6001546040519294509092506001600160a01b031690309062000f1d90620014f7565b6001600160a01b03928316815291166020820152606060408201819052600090820152608001604051809103906000f08015801562000f60573d6000803e3d6000fd5b506040805180820182526011815270047656c61746f20556e6973776170204c5607c1b6020820152905163bd30dfb960e01b815291945090309063bd30dfb99062000fb29086908690600401620019c4565b600060405180830381865afa92505050801562000ff357506040513d6000823e601f3d908101601f1916820160405262000ff0919081019062001ac5565b60015b1562000ffc5790505b604051630b4c774160e11b81526001600160a01b038481166004830152838116602483015262ffffff8b1660448301526000917f000000000000000000000000000000000000000000000000000000000000000090911690631698ee8290606401602060405180830381865afa1580156200107b573d6000803e3d6000fd5b505050506040513d601f19601f82011682018060405250810190620010a1919062001b63565b90506001600160a01b038116620010f95760405162461bcd60e51b815260206004820152601b60248201527a1d5b9a5cddd85c081c1bdbdb08191bd95cc81b9bdd08195e1a5cdd602a1b6044820152606401620003c1565b6200110681898962001356565b6200114b5760405162461bcd60e51b81526020600482015260146024820152730e8d2c6d6a6e0c2c6d2dcce40dad2e6dac2e8c6d60631b6044820152606401620003c1565b60405163e25e15e360e01b81526001600160a01b0386169063e25e15e3906200118390859085908e908e908e908e9060040162001b83565b600060405180830381600087803b1580156200119e57600080fd5b505af1158015620011b3573d6000803e3d6000fd5b50505050620011cd3360036200140390919063ffffffff16565b50336000908152600560205260409020620011e9908662001403565b50846001600160a01b0316866001600160a01b0316826001600160a01b03167f9c5d829b9b23efc461f9aeef91979ec04bb903feb3bee4f26d22114abfc7335b60405160405180910390a450505050979650505050505050565b606085858585856040516020016200126095949392919062001bf8565b604051602081830303815290604052905095945050505050565b600062000ed383836200141a565b600080826001600160a01b0316846001600160a01b031603620012db5760405162461bcd60e51b815260206004820152600a60248201526939b0b6b2903a37b5b2b760b11b6044820152606401620003c1565b826001600160a01b0316846001600160a01b031610620012fd57828462001300565b83835b90925090506001600160a01b0382166200134f5760405162461bcd60e51b815260206004820152600f60248201526e6e6f2061646472657373207a65726f60881b6044820152606401620003c1565b9250929050565b600080846001600160a01b031663d0c93a7c6040518163ffffffff1660e01b8152600401602060405180830381865afa15801562001398573d6000803e3d6000fd5b505050506040513d601f19601f82011682018060405250810190620013be919062001c6d565b90508260020b8460020b128015620013e25750620013dd818562001c8d565b60020b155b801562000ba45750620013f6818462001c8d565b60020b1595945050505050565b600062000ed3836001600160a01b038416620014a5565b815460009082106200147a5760405162461bcd60e51b815260206004820152602260248201527f456e756d657261626c655365743a20696e646578206f7574206f6620626f756e604482015261647360f01b6064820152608401620003c1565b826000018281548110620014925762001492620019de565b9060005260206000200154905092915050565b6000818152600183016020526040812054620014ee57508154600181810184556000848152602080822090930184905584548482528286019093526040902091909155620007f6565b506000620007f6565b6109928062001cbf83390190565b6001600160a01b03811681146200151b57600080fd5b50565b6000602082840312156200153157600080fd5b813562000ed38162001505565b634e487b7160e01b600052604160045260246000fd5b604051601f8201601f191681016001600160401b03811182821017156200157f576200157f6200153e565b604052919050565b600082601f8301126200159957600080fd5b813560206001600160401b03821115620015b757620015b76200153e565b8160051b620015c882820162001554565b9283528481018201928281019087851115620015e357600080fd5b83870192505b8483101562000a17578235620015ff8162001505565b82529183019190830190620015e9565b6000806000604084860312156200162557600080fd5b83356001600160401b03808211156200163d57600080fd5b6200164b8783880162001587565b945060208601359150808211156200166257600080fd5b818601915086601f8301126200167757600080fd5b8135818111156200168757600080fd5b8760208260051b85010111156200169d57600080fd5b6020830194508093505050509250925092565b600060208284031215620016c357600080fd5b81356001600160401b03811115620016da57600080fd5b620016e88482850162001587565b949350505050565b6001600160a01b0391909116815260200190565b60005b838110156200172157818101518382015260200162001707565b50506000910152565b600081518084526200174481602086016020860162001704565b601f01601f19169290920160200192915050565b60208152600062000ed360208301846200172a565b6020808252825182820181905260009190848201906040850190845b81811015620017b05783516001600160a01b03168352928401929184019160010162001789565b50909695505050505050565b803562ffffff81168114620017d057600080fd5b919050565b8060020b81146200151b57600080fd5b60008060008060008060c08789031215620017ff57600080fd5b86356200180c8162001505565b955060208701356200181e8162001505565b94506200182e60408801620017bc565b9350606087013561ffff811681146200184657600080fd5b925060808701356200185881620017d5565b915060a08701356200186a81620017d5565b809150509295509295509295565b600080600080600060a086880312156200189157600080fd5b85356200189e8162001505565b94506020860135620018b08162001505565b9350620018c060408701620017bc565b92506060860135620018d281620017d5565b91506080860135620018e481620017d5565b809150509295509295909350565b600080604083850312156200190657600080fd5b8235620019138162001505565b91506020830135620019258162001505565b809150509250929050565b6000806000606084860312156200194657600080fd5b8335620019538162001505565b92506020840135620019658162001505565b91506040840135620019778162001505565b809150509250925092565b60208082526022908201527f4f776e61626c653a2063616c6c6572206973206e6f7420746865206d616e616760408201526132b960f11b606082015260800190565b6001600160a01b0392831681529116602082015260400190565b634e487b7160e01b600052603260045260246000fd5b6000808335601e1984360301811262001a0c57600080fd5b8301803591506001600160401b0382111562001a2757600080fd5b6020019150368190038213156200134f57600080fd5b6001600160a01b03841681526040602082018190528101829052818360608301376000818301606090810191909152601f909201601f1916010192915050565b634e487b7160e01b600052601160045260246000fd5b60006001820162001aa85762001aa862001a7d565b5060010190565b80820180821115620007f657620007f662001a7d565b60006020828403121562001ad857600080fd5b81516001600160401b038082111562001af057600080fd5b818401915084601f83011262001b0557600080fd5b81518181111562001b1a5762001b1a6200153e565b62001b2f601f8201601f191660200162001554565b915080825285602082850101111562001b4757600080fd5b62001b5a81602084016020860162001704565b50949350505050565b60006020828403121562001b7657600080fd5b815162000ed38162001505565b60e08152600062001b9860e08301896200172a565b82810360208401526005815264472d554e4960d81b60208201526040810191505060018060a01b03808816604084015261ffff871660608401528560020b60808401528460020b60a084015280841660c084015250979650505050505050565b6000865162001c0c818460208b0162001704565b86519083019062001c22818360208b0162001704565b865191019062001c37818360208a0162001704565b855191019062001c4c81836020890162001704565b845191019062001c6181836020880162001704565b01979650505050505050565b60006020828403121562001c8057600080fd5b815162000ed381620017d5565b60008260020b8062001caf57634e487b7160e01b600052601260045260246000fd5b808360020b079150509291505056fe6080604052604051610992380380610992833981016040819052610022916101de565b61002c838261003d565b61003582610119565b5050506102ca565b7f360894a13ba1a3210667c828492db98dca3e2076cc3735a920a3ca505d382bbc8054908390556040516001600160a01b0380851691908316907f5570d70a002632a7b0b3c9304cc89efb62d8da9eca0dbd7752c83b737906829690600090a3815115610114576000836001600160a01b0316836040516100be91906102ae565b600060405180830381855af49150503d80600081146100f9576040519150601f19603f3d011682016040523d82523d6000602084013e6100fe565b606091505b5050905080610112573d806000803e806000fd5b505b505050565b60006101316000805160206109728339815191525490565b90508160008051602061097283398151915255816001600160a01b0316816001600160a01b03167fdf435d422321da6b195902d70fc417c06a32f88379c20dd8f2a8da07088cec2960405160405180910390a35050565b80516001600160a01b038116811461019f57600080fd5b919050565b634e487b7160e01b600052604160045260246000fd5b60005b838110156101d55781810151838201526020016101bd565b50506000910152565b6000806000606084860312156101f357600080fd5b6101fc84610188565b925061020a60208501610188565b60408501519092506001600160401b038082111561022757600080fd5b818601915086601f83011261023b57600080fd5b81518181111561024d5761024d6101a4565b604051601f8201601f19908116603f01168101908382118183101715610275576102756101a4565b8160405282815289602084870101111561028e57600080fd5b61029f8360208301602088016101ba565b80955050505050509250925092565b600082516102c08184602087016101ba565b9190910192915050565b610699806102d96000396000f3fe60806040526004361061004e5760003560e01c806301ffc9a71461009b5780633659cfe6146100d05780633e47158c146100f05780634f1ef2861461011d5780638356ca4f1461013057610091565b366100915760405162461bcd60e51b815260206004820152600e60248201526d115512115497d491529150d5115160921b60448201526064015b60405180910390fd5b610099610150565b005b3480156100a757600080fd5b506100bb6100b63660046104c7565b610189565b60405190151581526020015b60405180910390f35b3480156100dc57600080fd5b506100996100eb36600461050d565b61026f565b3480156100fc57600080fd5b506101056102c3565b6040516001600160a01b0390911681526020016100c7565b61009961012b366004610528565b6102d2565b34801561013c57600080fd5b5061009961014b36600461050d565b61034f565b6000805160206106448339815191525460003681823780813683855af491503d8082833e82801561017f578183f35b8183fd5b50505050565b60006301ffc9a760e01b6001600160e01b0319831614806101ba57506307f5828d60e41b6001600160e01b03198316145b156101c757506001919050565b6001600160e01b031980831690036101e157506000919050565b600080516020610644833981519152546040516301ffc9a760e01b81526001600160e01b0319841660048201526001600160a01b038216906301ffc9a790602401602060405180830381865afa92505050801561025b575060408051601f3d908101601f19168201909252610258918101906105aa565b60015b6102685750600092915050565b9392505050565b610277610390565b6001600160a01b0316336001600160a01b0316146102a75760405162461bcd60e51b8152600401610088906105cc565b6102c081604051806020016040528060008152506103a3565b50565b60006102cd610390565b905090565b6102da610390565b6001600160a01b0316336001600160a01b03161461030a5760405162461bcd60e51b8152600401610088906105cc565b61034a8383838080601f0160208091040260200160405190810160405280939291908181526020018383808284376000920191909152506103a392505050565b505050565b610357610390565b6001600160a01b0316336001600160a01b0316146103875760405162461bcd60e51b8152600401610088906105cc565b6102c081610466565b6000805160206106248339815191525490565b6000805160206106448339815191528054908390556040516001600160a01b0380851691908316907f5570d70a002632a7b0b3c9304cc89efb62d8da9eca0dbd7752c83b737906829690600090a381511561034a576000836001600160a01b03168360405161041291906105f4565b600060405180830381855af49150503d806000811461044d576040519150601f19603f3d011682016040523d82523d6000602084013e610452565b606091505b5050905080610183573d806000803e806000fd5b6000610470610390565b90508160008051602061062483398151915255816001600160a01b0316816001600160a01b03167fdf435d422321da6b195902d70fc417c06a32f88379c20dd8f2a8da07088cec2960405160405180910390a35050565b6000602082840312156104d957600080fd5b81356001600160e01b03198116811461026857600080fd5b80356001600160a01b038116811461050857600080fd5b919050565b60006020828403121561051f57600080fd5b610268826104f1565b60008060006040848603121561053d57600080fd5b610546846104f1565b925060208401356001600160401b038082111561056257600080fd5b818601915086601f83011261057657600080fd5b81358181111561058557600080fd5b87602082850101111561059757600080fd5b6020830194508093505050509250925092565b6000602082840312156105bc57600080fd5b8151801515811461026857600080fd5b6020808252600e908201526d1393d517d055551213d49256915160921b604082015260600190565b6000825160005b8181101561061557602081860181015185830152016105fb565b50600092019182525091905056feb53127684a568b3173ae13b9f8a6016e243e63b6e8ee1178d6a717850b5d6103360894a13ba1a3210667c828492db98dca3e2076cc3735a920a3ca505d382bbca2646970667358221220f8092c6d4e38cdaacdb3c899e6c75d21baaeaba76b22f353673f931b1f0f8a9b64736f6c63430008130033b53127684a568b3173ae13b9f8a6016e243e63b6e8ee1178d6a717850b5d61038be0079c531659141344cd1fd0a4f28419497f9722a3daafe3b4186f6b6457e0a2646970667358221220bab4dc364f42f8e82ed2983d450c7f7b787f86ecc2b056c62a10271dfd59e29364736f6c63430008130033",
  "devdoc": {
    "kind": "dev",
    "methods": {
      "createManagedPool(address,address,uint24,uint16,int24,int24)": {
        "params": {
          "lowerTick": "initial lower bound of the Uniswap V3 position",
          "managerFee": "proportion of earned fees that go to pool manager in Basis Points",
          "tokenA": "one of the tokens in the uniswap pair",
          "tokenB": "the other token in the uniswap pair",
          "uniFee": "fee tier of the uniswap pair",
          "upperTick": "initial upper bound of the Uniswap V3 position"
        },
        "returns": {
          "pool": "the address of the newly created G-UNI pool (proxy)"
        }
      },
      "createPool(address,address,uint24,int24,int24)": {
        "params": {
          "lowerTick": "initial lower bound of the Uniswap V3 position",
          "tokenA": "one of the tokens in the uniswap pair",
          "tokenB": "the other token in the uniswap pair",
          "uniFee": "fee tier of the uniswap pair",
          "upperTick": "initial upper bound of the Uniswap V3 position"
        },
        "returns": {
          "pool": "the address of the newly created G-UNI pool (proxy)"
        }
      },
      "getDeployers()": {
        "returns": {
          "_0": "deployers the list of deployer addresses"
        }
      },
      "getGelatoPools()": {
        "returns": {
          "_0": "list of Gelato managed G-UNI pool addresses"
        }
      },
      "getPools(address)": {
        "params": {
          "deployer": "address that has potentially deployed G-UNI pools (can return empty array)"
        },
        "returns": {
          "_0": "pools the list of G-UNI pool addresses deployed by `deployer`"
        }
      },
      "getProxyAdmin(address)": {
        "params": {
          "pool": "address of the G-UNI pool"
        },
        "returns": {
          "_0": "address that controls the G-UNI implementation (has power to upgrade it)"
        }
      },
      "isPoolImmutable(address)": {
        "params": {
          "pool": "address of the G-UNI pool"
        },
        "returns": {
          "_0": "bool signaling if pool is immutable (true) or not (false)"
        }
      },
      "manager()": {
        "details": "Returns the address of the current manager."
      },
      "numDeployers()": {
        "returns": {
          "_0": "total number of G-UNI pool deployer addresses"
        }
      },
      "numPools()": {
        "returns": {
          "result": "total number of G-UNI pools deployed"
        }
      },
      "numPools(address)": {
        "params": {
          "deployer": "deployer address"
        },
        "returns": {
          "_0": "total number of G-UNI pools deployed by `deployer`"
        }
      },
      "renounceOwnership()": {
        "details": "Leaves the contract without manager. It will not be possible to call `onlyManager` functions anymore. Can only be called by the current manager. NOTE: Renouncing ownership will leave the contract without an manager, thereby removing any functionality that is only available to the manager."
      },
      "transferOwnership(address)": {
        "details": "Transfers ownership of the contract to a new account (`newOwner`). Can only be called by the current manager."
      }
    },
    "version": 1
  },
  "userdoc": {
    "kind": "user",
    "methods": {
      "createManagedPool(address,address,uint24,uint16,int24,int24)": {
        "notice": "createManagedPool creates a new instance of a G-UNI token on a specified UniswapV3Pool. The msg.sender is the initial manager of the pool and will forever be associated with the G-UNI pool as it's `deployer`"
      },
      "createPool(address,address,uint24,int24,int24)": {
        "notice": "createPool creates a new instance of a G-UNI token on a specified UniswapV3Pool. Here the manager role is immediately burned, however msg.sender will still forever be associated with the G-UNI pool as it's `deployer`"
      },
      "getDeployers()": {
        "notice": "getDeployers fetches all addresses that have deployed a G-UNI pool"
      },
      "getGelatoPools()": {
        "notice": "getGelatoPools gets all the G-UNI pools deployed by Gelato's default deployer address (since anyone can deploy and manage G-UNI pools)"
      },
      "getPools(address)": {
        "notice": "getPools fetches all the G-UNI pool addresses deployed by `deployer`"
      },
      "getProxyAdmin(address)": {
        "notice": "getProxyAdmin gets the current address who controls the underlying implementation of a G-UNI pool. For most all pools either this contract address or the zero address will be the proxyAdmin. If the admin is the zero address the pool's implementation is naturally no longer upgradable (no one owns the zero address)."
      },
      "isPoolImmutable(address)": {
        "notice": "isPoolImmutable checks if a certain G-UNI pool is \"immutable\" i.e. that the proxyAdmin is the zero address and thus the underlying implementation cannot be upgraded"
      },
      "numDeployers()": {
        "notice": "numDeployers counts the total number of G-UNI pool deployer addresses"
      },
      "numPools()": {
        "notice": "numPools counts the total number of G-UNI pools in existence"
      },
      "numPools(address)": {
        "notice": "numPools counts the total number of G-UNI pools deployed by `deployer`"
      }
    },
    "version": 1
  },
  "storageLayout": {
    "storage": [
      {
        "astId": 6441,
        "contract": "contracts/GUniFactory.sol:GUniFactory",
        "label": "_manager",
        "offset": 0,
        "slot": "0",
        "type": "t_address"
      },
      {
        "astId": 5,
        "contract": "contracts/GUniFactory.sol:GUniFactory",
        "label": "_initialized",
        "offset": 20,
        "slot": "0",
        "type": "t_bool"
      },
      {
        "astId": 8,
        "contract": "contracts/GUniFactory.sol:GUniFactory",
        "label": "_initializing",
        "offset": 21,
        "slot": "0",
        "type": "t_bool"
      },
      {
        "astId": 5909,
        "contract": "contracts/GUniFactory.sol:GUniFactory",
        "label": "poolImplementation",
        "offset": 0,
        "slot": "1",
        "type": "t_address"
      },
      {
        "astId": 5911,
        "contract": "contracts/GUniFactory.sol:GUniFactory",
        "label": "gelatoDeployer",
        "offset": 0,
        "slot": "2",
        "type": "t_address"
      },
      {
        "astId": 5914,
        "contract": "contracts/GUniFactory.sol:GUniFactory",
        "label": "_deployers",
        "offset": 0,
        "slot": "3",
        "type": "t_struct(AddressSet)2007_storage"
      },
      {
        "astId": 5919,
        "contract": "contracts/GUniFactory.sol:GUniFactory",
        "label": "_pools",
        "offset": 0,
        "slot": "5",
        "type": "t_mapping(t_address,t_struct(AddressSet)2007_storage)"
      }
    ],
    "types": {
      "t_address": {
        "encoding": "inplace",
        "label": "address",
        "numberOfBytes": "20"
      },
      "t_array(t_bytes32)dyn_storage": {
        "base": "t_bytes32",
        "encoding": "dynamic_array",
        "label": "bytes32[]",
        "numberOfBytes": "32"
      },
      "t_bool": {
        "encoding": "inplace",
        "label": "bool",
        "numberOfBytes": "1"
      },
      "t_bytes32": {
        "encoding": "inplace",
        "label": "bytes32",
        "numberOfBytes": "32"
      },
      "t_mapping(t_address,t_struct(AddressSet)2007_storage)": {
        "encoding": "mapping",
        "key": "t_address",
        "label": "mapping(address => struct EnumerableSet.AddressSet)",
        "numberOfBytes": "32",
        "value": "t_struct(AddressSet)2007_storage"
      },
      "t_mapping(t_bytes32,t_uint256)": {
        "encoding": "mapping",
        "key": "t_bytes32",
        "label": "mapping(bytes32 => uint256)",
        "numberOfBytes": "32",
        "value": "t_uint256"
      },
      "t_struct(AddressSet)2007_storage": {
        "encoding": "inplace",
        "label": "struct EnumerableSet.AddressSet",
        "members": [
          {
            "astId": 2006,
            "contract": "contracts/GUniFactory.sol:GUniFactory",
            "label": "_inner",
            "offset": 0,
            "slot": "0",
            "type": "t_struct(Set)1732_storage"
          }
        ],
        "numberOfBytes": "64"
      },
      "t_struct(Set)1732_storage": {
        "encoding": "inplace",
        "label": "struct EnumerableSet.Set",
        "members": [
          {
            "astId": 1727,
            "contract": "contracts/GUniFactory.sol:GUniFactory",
            "label": "_values",
            "offset": 0,
            "slot": "0",
            "type": "t_array(t_bytes32)dyn_storage"
          },
          {
            "astId": 1731,
            "contract": "contracts/GUniFactory.sol:GUniFactory",
            "label": "_indexes",
            "offset": 0,
            "slot": "1",
            "type": "t_mapping(t_bytes32,t_uint256)"
          }
        ],
        "numberOfBytes": "64"
      },
      "t_uint256": {
        "encoding": "inplace",
        "label": "uint256",
        "numberOfBytes": "32"
      }
    }
  }
}