{
  "address": "0xE292cF4e316191CbFEbD74909356DF3cd9455e96",
  "abi": [
    {
      "inputs": [
        {
          "internalType": "address payable",
          "name": "_gelato",
          "type": "address"
        }
      ],
      "stateMutability": "nonpayable",
      "type": "constructor"
    },
    {
      "anonymous": false,
      "inputs": [
        {
          "indexed": true,
          "internalType": "address",
          "name": "owner",
          "type": "address"
        },
        {
          "indexed": true,
          "internalType": "address",
          "name": "spender",
          "type": "address"
        },
        {
          "indexed": false,
          "internalType": "uint256",
          "name": "value",
          "type": "uint256"
        }
      ],
      "name": "Approval",
      "type": "event"
    },
    {
      "anonymous": false,
      "inputs": [
        {
          "indexed": false,
          "internalType": "address",
          "name": "receiver",
          "type": "address"
        },
        {
          "indexed": false,
          "internalType": "uint256",
          "name": "burnAmount",
          "type": "uint256"
        },
        {
          "indexed": false,
          "internalType": "uint256",
          "name": "amount0Out",
          "type": "uint256"
        },
        {
          "indexed": false,
          "internalType": "uint256",
          "name": "amount1Out",
          "type": "uint256"
        },
        {
          "indexed": false,
          "internalType": "uint128",
          "name": "liquidityBurned",
          "type": "uint128"
        }
      ],
      "name": "Burned",
      "type": "event"
    },
    {
      "anonymous": false,
      "inputs": [
        {
          "indexed": false,
          "internalType": "uint256",
          "name": "feesEarned0",
          "type": "uint256"
        },
        {
          "indexed": false,
          "internalType": "uint256",
          "name": "feesEarned1",
          "type": "uint256"
        }
      ],
      "name": "FeesEarned",
      "type": "event"
    },
    {
      "anonymous": false,
      "inputs": [
        {
          "indexed": false,
          "internalType": "address",
          "name": "receiver",
          "type": "address"
        },
        {
          "indexed": false,
          "internalType": "uint256",
          "name": "mintAmount",
          "type": "uint256"
        },
        {
          "indexed": false,
          "internalType": "uint256",
          "name": "amount0In",
          "type": "uint256"
        },
        {
          "indexed": false,
          "internalType": "uint256",
          "name": "amount1In",
          "type": "uint256"
        },
        {
          "indexed": false,
          "internalType": "uint128",
          "name": "liquidityMinted",
          "type": "uint128"
        }
      ],
      "name": "Minted",
      "type": "event"
    },
    {
      "anonymous": false,
      "inputs": [
        {
          "indexed": true,
          "internalType": "address",
          "name": "previousManager",
          "type": "address"
        },
        {
          "indexed": true,
          "internalType": "address",
          "name": "newManager",
          "type": "address"
        }
      ],
      "name": "OwnershipTransferred",
      "type": "event"
    },
    {
      "anonymous": false,
      "inputs": [
        {
          "indexed": false,
          "internalType": "int24",
          "name": "lowerTick_",
          "type": "int24"
        },
        {
          "indexed": false,
          "internalType": "int24",
          "name": "upperTick_",
          "type": "int24"
        },
        {
          "indexed": false,
          "internalType": "uint128",
          "name": "liquidityBefore",
          "type": "uint128"
        },
        {
          "indexed": false,
          "internalType": "uint128",
          "name": "liquidityAfter",
          "type": "uint128"
        }
      ],
      "name": "Rebalance",
      "type": "event"
    },
    {
      "anonymous": false,
      "inputs": [
        {
          "indexed": false,
          "internalType": "uint16",
          "name": "managerFee",
          "type": "uint16"
        }
      ],
      "name": "SetManagerFee",
      "type": "event"
    },
    {
      "anonymous": false,
      "inputs": [
        {
          "indexed": true,
          "internalType": "address",
          "name": "from",
          "type": "address"
        },
        {
          "indexed": true,
          "internalType": "address",
          "name": "to",
          "type": "address"
        },
        {
          "indexed": false,
          "internalType": "uint256",
          "name": "value",
          "type": "uint256"
        }
      ],
      "name": "Transfer",
      "type": "event"
    },
    {
      "anonymous": false,
      "inputs": [
        {
          "indexed": false,
          "internalType": "address",
          "name": "oldAdminTreasury",
          "type": "address"
        },
        {
          "indexed": false,
          "internalType": "address",
          "name": "newAdminTreasury",
          "type": "address"
        }
      ],
      "name": "UpdateAdminTreasury",
      "type": "event"
    },
    {
      "anonymous": false,
      "inputs": [
        {
          "indexed": false,
          "internalType": "uint16",
          "name": "gelatoRebalanceBPS",
          "type": "uint16"
        },
        {
          "indexed": false,
          "internalType": "uint16",
          "name": "gelatoWithdrawBPS",
          "type": "uint16"
        },
        {
          "indexed": false,
          "internalType": "uint16",
          "name": "gelatoSlippageBPS",
          "type": "uint16"
        },
        {
          "indexed": false,
          "internalType": "uint32",
          "name": "gelatoSlippageInterval",
          "type": "uint32"
        }
      ],
      "name": "UpdateGelatoParams",
      "type": "event"
    },
    {
      "inputs": [],
      "name": "GELATO",
      "outputs": [
        {
          "internalType": "address payable",
          "name": "",
          "type": "address"
        }
      ],
      "stateMutability": "view",
      "type": "function"
    },
    {
      "inputs": [
        {
          "internalType": "address",
          "name": "owner",
          "type": "address"
        },
        {
          "internalType": "address",
          "name": "spender",
          "type": "address"
        }
      ],
      "name": "allowance",
      "outputs": [
        {
          "internalType": "uint256",
          "name": "",
          "type": "uint256"
        }
      ],
      "stateMutability": "view",
      "type": "function"
    },
    {
      "inputs": [
        {
          "internalType": "address",
          "name": "spender",
          "type": "address"
        },
        {
          "internalType": "uint256",
          "name": "amount",
          "type": "uint256"
        }
      ],
      "name": "approve",
      "outputs": [
        {
          "internalType": "bool",
          "name": "",
          "type": "bool"
        }
      ],
      "stateMutability": "nonpayable",
      "type": "function"
    },
    {
      "inputs": [
        {
          "internalType": "address",
          "name": "account",
          "type": "address"
        }
      ],
      "name": "balanceOf",
      "outputs": [
        {
          "internalType": "uint256",
          "name": "",
          "type": "uint256"
        }
      ],
      "stateMutability": "view",
      "type": "function"
    },
    {
      "inputs": [
        {
          "internalType": "uint256",
          "name": "burnAmount",
          "type": "uint256"
        },
        {
          "internalType": "address",
          "name": "receiver",
          "type": "address"
        }
      ],
      "name": "burn",
      "outputs": [
        {
          "internalType": "uint256",
          "name": "amount0",
          "type": "uint256"
        },
        {
          "internalType": "uint256",
          "name": "amount1",
          "type": "uint256"
        },
        {
          "internalType": "uint128",
          "name": "liquidityBurned",
          "type": "uint128"
        }
      ],
      "stateMutability": "nonpayable",
      "type": "function"
    },
    {
      "inputs": [],
      "name": "decimals",
      "outputs": [
        {
          "internalType": "uint8",
          "name": "",
          "type": "uint8"
        }
      ],
      "stateMutability": "view",
      "type": "function"
    },
    {
      "inputs": [
        {
          "internalType": "address",
          "name": "spender",
          "type": "address"
        },
        {
          "internalType": "uint256",
          "name": "subtractedValue",
          "type": "uint256"
        }
      ],
      "name": "decreaseAllowance",
      "outputs": [
        {
          "internalType": "bool",
          "name": "",
          "type": "bool"
        }
      ],
      "stateMutability": "nonpayable",
      "type": "function"
    },
    {
      "inputs": [
        {
          "internalType": "int24",
          "name": "newLowerTick",
          "type": "int24"
        },
        {
          "internalType": "int24",
          "name": "newUpperTick",
          "type": "int24"
        },
        {
          "internalType": "uint160",
          "name": "swapThresholdPrice",
          "type": "uint160"
        },
        {
          "internalType": "uint256",
          "name": "swapAmountBPS",
          "type": "uint256"
        },
        {
          "internalType": "bool",
          "name": "zeroForOne",
          "type": "bool"
        }
      ],
      "name": "executiveRebalance",
      "outputs": [],
      "stateMutability": "nonpayable",
      "type": "function"
    },
    {
      "inputs": [],
      "name": "gelatoBalance0",
      "outputs": [
        {
          "internalType": "uint256",
          "name": "",
          "type": "uint256"
        }
      ],
      "stateMutability": "view",
      "type": "function"
    },
    {
      "inputs": [],
      "name": "gelatoBalance1",
      "outputs": [
        {
          "internalType": "uint256",
          "name": "",
          "type": "uint256"
        }
      ],
      "stateMutability": "view",
      "type": "function"
    },
    {
      "inputs": [],
      "name": "gelatoFeeBPS",
      "outputs": [
        {
          "internalType": "uint16",
          "name": "",
          "type": "uint16"
        }
      ],
      "stateMutability": "view",
      "type": "function"
    },
    {
      "inputs": [],
      "name": "gelatoRebalanceBPS",
      "outputs": [
        {
          "internalType": "uint16",
          "name": "",
          "type": "uint16"
        }
      ],
      "stateMutability": "view",
      "type": "function"
    },
    {
      "inputs": [],
      "name": "gelatoSlippageBPS",
      "outputs": [
        {
          "internalType": "uint16",
          "name": "",
          "type": "uint16"
        }
      ],
      "stateMutability": "view",
      "type": "function"
    },
    {
      "inputs": [],
      "name": "gelatoSlippageInterval",
      "outputs": [
        {
          "internalType": "uint32",
          "name": "",
          "type": "uint32"
        }
      ],
      "stateMutability": "view",
      "type": "function"
    },
    {
      "inputs": [],
      "name": "gelatoWithdrawBPS",
      "outputs": [
        {
          "internalType": "uint16",
          "name": "",
          "type": "uint16"
        }
      ],
      "stateMutability": "view",
      "type": "function"
    },
    {
      "inputs": [
        {
          "internalType": "uint256",
          "name": "amount0Max",
          "type": "uint256"
        },
        {
          "internalType": "uint256",
          "name": "amount1Max",
          "type": "uint256"
        }
      ],
      "name": "getMintAmounts",
      "outputs": [
        {
          "internalType": "uint256",
          "name": "amount0",
          "type": "uint256"
        },
        {
          "internalType": "uint256",
          "name": "amount1",
          "type": "uint256"
        },
        {
          "internalType": "uint256",
          "name": "mintAmount",
          "type": "uint256"
        }
      ],
      "stateMutability": "view",
      "type": "function"
    },
    {
      "inputs": [],
      "name": "getPositionID",
      "outputs": [
        {
          "internalType": "bytes32",
          "name": "positionID",
          "type": "bytes32"
        }
      ],
      "stateMutability": "view",
      "type": "function"
    },
    {
      "inputs": [],
      "name": "getUnderlyingBalances",
      "outputs": [
        {
          "internalType": "uint256",
          "name": "amount0Current",
          "type": "uint256"
        },
        {
          "internalType": "uint256",
          "name": "amount1Current",
          "type": "uint256"
        }
      ],
      "stateMutability": "view",
      "type": "function"
    },
    {
      "inputs": [
        {
          "internalType": "uint160",
          "name": "sqrtRatioX96",
          "type": "uint160"
        }
      ],
      "name": "getUnderlyingBalancesAtPrice",
      "outputs": [
        {
          "internalType": "uint256",
          "name": "amount0Current",
          "type": "uint256"
        },
        {
          "internalType": "uint256",
          "name": "amount1Current",
          "type": "uint256"
        }
      ],
      "stateMutability": "view",
      "type": "function"
    },
    {
      "inputs": [
        {
          "internalType": "address",
          "name": "spender",
          "type": "address"
        },
        {
          "internalType": "uint256",
          "name": "addedValue",
          "type": "uint256"
        }
      ],
      "name": "increaseAllowance",
      "outputs": [
        {
          "internalType": "bool",
          "name": "",
          "type": "bool"
        }
      ],
      "stateMutability": "nonpayable",
      "type": "function"
    },
    {
      "inputs": [
        {
          "internalType": "string",
          "name": "_name",
          "type": "string"
        },
        {
          "internalType": "string",
          "name": "_symbol",
          "type": "string"
        },
        {
          "internalType": "address",
          "name": "_pool",
          "type": "address"
        },
        {
          "internalType": "uint16",
          "name": "_managerFeeBPS",
          "type": "uint16"
        },
        {
          "internalType": "int24",
          "name": "_lowerTick",
          "type": "int24"
        },
        {
          "internalType": "int24",
          "name": "_upperTick",
          "type": "int24"
        },
        {
          "internalType": "address",
          "name": "_manager_",
          "type": "address"
        }
      ],
      "name": "initialize",
      "outputs": [],
      "stateMutability": "nonpayable",
      "type": "function"
    },
    {
      "inputs": [
        {
          "internalType": "uint16",
          "name": "_managerFeeBPS",
          "type": "uint16"
        }
      ],
      "name": "initializeManagerFee",
      "outputs": [],
      "stateMutability": "nonpayable",
      "type": "function"
    },
    {
      "inputs": [],
      "name": "lowerTick",
      "outputs": [
        {
          "internalType": "int24",
          "name": "",
          "type": "int24"
        }
      ],
      "stateMutability": "view",
      "type": "function"
    },
    {
      "inputs": [],
      "name": "manager",
      "outputs": [
        {
          "internalType": "address",
          "name": "",
          "type": "address"
        }
      ],
      "stateMutability": "view",
      "type": "function"
    },
    {
      "inputs": [],
      "name": "managerBalance0",
      "outputs": [
        {
          "internalType": "uint256",
          "name": "",
          "type": "uint256"
        }
      ],
      "stateMutability": "view",
      "type": "function"
    },
    {
      "inputs": [],
      "name": "managerBalance1",
      "outputs": [
        {
          "internalType": "uint256",
          "name": "",
          "type": "uint256"
        }
      ],
      "stateMutability": "view",
      "type": "function"
    },
    {
      "inputs": [],
      "name": "managerFeeBPS",
      "outputs": [
        {
          "internalType": "uint16",
          "name": "",
          "type": "uint16"
        }
      ],
      "stateMutability": "view",
      "type": "function"
    },
    {
      "inputs": [],
      "name": "managerTreasury",
      "outputs": [
        {
          "internalType": "address",
          "name": "",
          "type": "address"
        }
      ],
      "stateMutability": "view",
      "type": "function"
    },
    {
      "inputs": [
        {
          "internalType": "uint256",
          "name": "mintAmount",
          "type": "uint256"
        },
        {
          "internalType": "address",
          "name": "receiver",
          "type": "address"
        }
      ],
      "name": "mint",
      "outputs": [
        {
          "internalType": "uint256",
          "name": "amount0",
          "type": "uint256"
        },
        {
          "internalType": "uint256",
          "name": "amount1",
          "type": "uint256"
        },
        {
          "internalType": "uint128",
          "name": "liquidityMinted",
          "type": "uint128"
        }
      ],
      "stateMutability": "nonpayable",
      "type": "function"
    },
    {
      "inputs": [],
      "name": "name",
      "outputs": [
        {
          "internalType": "string",
          "name": "",
          "type": "string"
        }
      ],
      "stateMutability": "view",
      "type": "function"
    },
    {
      "inputs": [],
      "name": "pool",
      "outputs": [
        {
          "internalType": "contract IUniswapV3Pool",
          "name": "",
          "type": "address"
        }
      ],
      "stateMutability": "view",
      "type": "function"
    },
    {
      "inputs": [
        {
          "internalType": "uint160",
          "name": "swapThresholdPrice",
          "type": "uint160"
        },
        {
          "internalType": "uint256",
          "name": "swapAmountBPS",
          "type": "uint256"
        },
        {
          "internalType": "bool",
          "name": "zeroForOne",
          "type": "bool"
        },
        {
          "internalType": "uint256",
          "name": "feeAmount",
          "type": "uint256"
        },
        {
          "internalType": "address",
          "name": "paymentToken",
          "type": "address"
        }
      ],
      "name": "rebalance",
      "outputs": [],
      "stateMutability": "nonpayable",
      "type": "function"
    },
    {
      "inputs": [],
      "name": "renounceOwnership",
      "outputs": [],
      "stateMutability": "nonpayable",
      "type": "function"
    },
    {
      "inputs": [],
      "name": "symbol",
      "outputs": [
        {
          "internalType": "string",
          "name": "",
          "type": "string"
        }
      ],
      "stateMutability": "view",
      "type": "function"
    },
    {
      "inputs": [],
      "name": "token0",
      "outputs": [
        {
          "internalType": "contract IERC20",
          "name": "",
          "type": "address"
        }
      ],
      "stateMutability": "view",
      "type": "function"
    },
    {
      "inputs": [],
      "name": "token1",
      "outputs": [
        {
          "internalType": "contract IERC20",
          "name": "",
          "type": "address"
        }
      ],
      "stateMutability": "view",
      "type": "function"
    },
    {
      "inputs": [],
      "name": "totalSupply",
      "outputs": [
        {
          "internalType": "uint256",
          "name": "",
          "type": "uint256"
        }
      ],
      "stateMutability": "view",
      "type": "function"
    },
    {
      "inputs": [
        {
          "internalType": "address",
          "name": "recipient",
          "type": "address"
        },
        {
          "internalType": "uint256",
          "name": "amount",
          "type": "uint256"
        }
      ],
      "name": "transfer",
      "outputs": [
        {
          "internalType": "bool",
          "name": "",
          "type": "bool"
        }
      ],
      "stateMutability": "nonpayable",
      "type": "function"
    },
    {
      "inputs": [
        {
          "internalType": "address",
          "name": "sender",
          "type": "address"
        },
        {
          "internalType": "address",
          "name": "recipient",
          "type": "address"
        },
        {
          "internalType": "uint256",
          "name": "amount",
          "type": "uint256"
        }
      ],
      "name": "transferFrom",
      "outputs": [
        {
          "internalType": "bool",
          "name": "",
          "type": "bool"
        }
      ],
      "stateMutability": "nonpayable",
      "type": "function"
    },
    {
      "inputs": [
        {
          "internalType": "address",
          "name": "newOwner",
          "type": "address"
        }
      ],
      "name": "transferOwnership",
      "outputs": [],
      "stateMutability": "nonpayable",
      "type": "function"
    },
    {
      "inputs": [
        {
          "internalType": "uint256",
          "name": "amount0Owed",
          "type": "uint256"
        },
        {
          "internalType": "uint256",
          "name": "amount1Owed",
          "type": "uint256"
        },
        {
          "internalType": "bytes",
          "name": "",
          "type": "bytes"
        }
      ],
      "name": "uniswapV3MintCallback",
      "outputs": [],
      "stateMutability": "nonpayable",
      "type": "function"
    },
    {
      "inputs": [
        {
          "internalType": "int256",
          "name": "amount0Delta",
          "type": "int256"
        },
        {
          "internalType": "int256",
          "name": "amount1Delta",
          "type": "int256"
        },
        {
          "internalType": "bytes",
          "name": "",
          "type": "bytes"
        }
      ],
      "name": "uniswapV3SwapCallback",
      "outputs": [],
      "stateMutability": "nonpayable",
      "type": "function"
    },
    {
      "inputs": [
        {
          "internalType": "uint16",
          "name": "newRebalanceBPS",
          "type": "uint16"
        },
        {
          "internalType": "uint16",
          "name": "newWithdrawBPS",
          "type": "uint16"
        },
        {
          "internalType": "uint16",
          "name": "newSlippageBPS",
          "type": "uint16"
        },
        {
          "internalType": "uint32",
          "name": "newSlippageInterval",
          "type": "uint32"
        },
        {
          "internalType": "address",
          "name": "newTreasury",
          "type": "address"
        }
      ],
      "name": "updateGelatoParams",
      "outputs": [],
      "stateMutability": "nonpayable",
      "type": "function"
    },
    {
      "inputs": [],
      "name": "upperTick",
      "outputs": [
        {
          "internalType": "int24",
          "name": "",
          "type": "int24"
        }
      ],
      "stateMutability": "view",
      "type": "function"
    },
    {
      "inputs": [],
      "name": "version",
      "outputs": [
        {
          "internalType": "string",
          "name": "",
          "type": "string"
        }
      ],
      "stateMutability": "view",
      "type": "function"
    },
    {
      "inputs": [
        {
          "internalType": "uint256",
          "name": "feeAmount",
          "type": "uint256"
        },
        {
          "internalType": "address",
          "name": "feeToken",
          "type": "address"
        }
      ],
      "name": "withdrawGelatoBalance",
      "outputs": [],
      "stateMutability": "nonpayable",
      "type": "function"
    },
    {
      "inputs": [
        {
          "internalType": "uint256",
          "name": "feeAmount",
          "type": "uint256"
        },
        {
          "internalType": "address",
          "name": "feeToken",
          "type": "address"
        }
      ],
      "name": "withdrawManagerBalance",
      "outputs": [],
      "stateMutability": "nonpayable",
      "type": "function"
    }
  ],
  "transactionHash": "0xe29b82d3f720f651bdb337916ad603e2660e93bb727073a556289583d936d43d",
  "args": [
    "0xB47C8e4bEb28af80eDe5E5bF474927b110Ef2c0e"
  ],
  "solcInputHash": "f1f932b5297d788fce5c0abb03e1e395",
  "bytecode": "0x60a06040523480156200001157600080fd5b5060405162005e0e38038062005e0e833981016040819052620000349162000046565b6001600160a01b031660805262000078565b6000602082840312156200005957600080fd5b81516001600160a01b03811681146200007157600080fd5b9392505050565b608051615d3b620000d3600039600081816105f801528181610ce301528181610dcc01528181610e06015281816114a7015281816116d50152818161170f015281816117e20152818161185901526118960152615d3b6000f3fe608060405234801561001057600080fd5b50600436106102255760003560e01c8063065756db1461022a57806306fdde0314610246578063095ea7b31461025b5780630dfe16811461027e5780631322d9541461029e57806316f0115b146102b457806318160ddd146102c757806323b872dd146102cf57806324b8fd1b146102e257806331366be4146102f7578063313ce5671461031257806339509351146103215780633d8b30e11461033457806342fb9d4414610349578063481c6a751461035257806354fd4d501461035a578063672152bd1461037e57806370a08231146103a3578063715018a6146103cc578063727dd228146103d457806378ac6357146103f557806394bf804d1461040857806395d89b411461043f5780639894f21a1461044757806399fd808c146104755780639b1344ac14610488578063a457c2d71461049c578063a50b1fe7146104af578063a9059cbb146104c4578063b135c99f146104d7578063b536bd12146104ea578063b670ed7d146104f3578063be93dd5f14610506578063c345445914610519578063cc95353e14610522578063ccdf7a021461053c578063d21220a714610551578063d348799714610564578063d6e7ff3914610577578063dd62ed3e1461058c578063df28408a146105c5578063e25e15e3146105cd578063e4077894146105e0578063eff557a7146105f3578063f2fde38b1461061a578063fa461e331461062d578063fcd3533c14610640575b600080fd5b61023360995481565b6040519081526020015b60405180910390f35b61024e610653565b60405161023d9190614dc5565b61026e610269366004614e0d565b6106e5565b604051901515815260200161023d565b609e54610291906001600160a01b031681565b60405161023d9190614e39565b6102a66106fc565b60405161023d929190614e4d565b609d54610291906001600160a01b031681565b603554610233565b61026e6102dd366004614e5b565b610796565b6102f56102f0366004614eb9565b61084e565b005b6102ff600081565b60405161ffff909116815260200161023d565b6040516012815260200161023d565b61026e61032f366004614e0d565b610c3a565b6097546102ff90600160e01b900461ffff1681565b610233609a5481565b610291610c71565b61024e604051806040016040528060058152602001640312e302e360dc1b81525081565b60985461038e9063ffffffff1681565b60405163ffffffff909116815260200161023d565b6102336103b1366004614f21565b6001600160a01b031660009081526033602052604090205490565b6102f5610c80565b6097546103e890600160b81b900460020b81565b60405161023d9190614f3e565b6102f5610403366004614f4c565b610cd6565b61041b610416366004614f4c565b610e31565b6040805193845260208401929092526001600160801b03169082015260600161023d565b61024e6110ea565b61045a610455366004614f7c565b6110f9565b6040805193845260208401929092529082015260600161023d565b6102f5610483366004614fc0565b611232565b6097546103e890600160a01b900460020b81565b61026e6104aa366004614e0d565b6113f2565b6097546102ff90600160d01b900461ffff1681565b61026e6104d2366004614e0d565b61148d565b6102f56104e5366004615023565b61149a565b610233609b5481565b6102a6610501366004614f21565b61173d565b6102f5610514366004614f4c565b6117d5565b610233609c5481565b60985461029190600160301b90046001600160a01b031681565b6098546102ff90600160201b900461ffff1681565b609f54610291906001600160a01b031681565b6102f56105723660046150bc565b6118bb565b6097546102ff90600160f01b900461ffff1681565b61023361059a36600461510e565b6001600160a01b03918216600090815260346020908152604080832093909416825291909152205490565b61023361191f565b6102f56105db3660046151f1565b61192e565b6102f56105ee3660046152b3565b611ba3565b6102917f000000000000000000000000000000000000000000000000000000000000000081565b6102f5610628366004614f21565b611cb0565b6102f561063b3660046150bc565b611d90565b61041b61064e366004614f4c565b611dfa565b606060368054610662906152d0565b80601f016020809104026020016040519081016040528092919081815260200182805461068e906152d0565b80156106db5780601f106106b0576101008083540402835291602001916106db565b820191906000526020600020905b8154815290600101906020018083116106be57829003601f168201915b5050505050905090565b60006106f2338484612114565b5060015b92915050565b600080600080609d60009054906101000a90046001600160a01b03166001600160a01b0316633850c7bd6040518163ffffffff1660e01b815260040160e060405180830381865afa158015610755573d6000803e3d6000fd5b505050506040513d601f19601f82011682018060405250810190610779919061530a565b50505050509150915061078c8282612239565b9350935050509091565b60006107a38484846124b9565b6001600160a01b03841660009081526034602090815260408083203384529091529020548281101561082d5760405162461bcd60e51b815260206004820152602860248201527f45524332303a207472616e7366657220616d6f756e74206578636565647320616044820152676c6c6f77616e636560c01b60648201526084015b60405180910390fd5b610841853361083c86856153b2565b612114565b60019150505b9392505050565b33610857610c71565b6001600160a01b03161461087d5760405162461bcd60e51b8152600401610824906153c5565b600080600061088b60355490565b1115610bca57609d546001600160a01b031663514ea4bf6108aa61267f565b6040518263ffffffff1660e01b81526004016108c891815260200190565b60a060405180830381865afa1580156108e5573d6000803e3d6000fd5b505050506040513d601f19601f82011682018060405250810190610909919061541e565b5092945050506001600160801b03831615905061099257609754600090819061094890600160a01b8104600290810b91600160b81b9004900b866126da565b9350935050506109588282612a0d565b6109628282612ae6565b6040519193509150600080516020615ce6833981519152906109879084908490614e4d565b60405180910390a150505b6097805462ffffff888116600160b81b0262ffffff60b81b19918b16600160a01b029190911665ffffffffffff60a01b1990921691909117179055609b54609954609e546040516370a0823160e01b815260009392916001600160a01b0316906370a0823190610a06903090600401614e39565b602060405180830381865afa158015610a23573d6000803e3d6000fd5b505050506040513d601f19601f82011682018060405250810190610a479190615475565b610a5191906153b2565b610a5b91906153b2565b609c54609a54609f546040516370a0823160e01b81529394506000936001600160a01b03909116906370a0823190610a97903090600401614e39565b602060405180830381865afa158015610ab4573d6000803e3d6000fd5b505050506040513d601f19601f82011682018060405250810190610ad89190615475565b610ae291906153b2565b610aec91906153b2565b9050610afd898984848b8b8b612b80565b609d546001600160a01b031663514ea4bf610b1661267f565b6040518263ffffffff1660e01b8152600401610b3491815260200190565b60a060405180830381865afa158015610b51573d6000803e3d6000fd5b505050506040513d601f19601f82011682018060405250810190610b75919061541e565b509295505050506001600160801b038316610bc35760405162461bcd60e51b815260206004820152600e60248201526d06e657720706f736974696f6e20360941b6044820152606401610824565b5050610c06565b6097805462ffffff888116600160b81b0262ffffff60b81b19918b16600160a01b029190911665ffffffffffff60a01b19909216919091171790555b600080516020615c8683398151915287878484604051610c29949392919061548e565b60405180910390a150505050505050565b3360008181526034602090815260408083206001600160a01b038716845290915281205490916106f291859061083c9086906154bc565b6097546001600160a01b031690565b33610c89610c71565b6001600160a01b031614610caf5760405162461bcd60e51b8152600401610824906153c5565b60988054600160201b600160d01b031916905560006099819055609a55610cd4612d21565b565b8181336001600160a01b037f00000000000000000000000000000000000000000000000000000000000000001614610d205760405162461bcd60e51b8152600401610824906154cf565b600080610d33609954609a548888612d88565b60006099819055609a5590925090508115610d6d57609854609e54610d6d916001600160a01b0391821691600160301b9091041684612eac565b8015610d9857609854609f54610d98916001600160a01b0391821691600160301b9091041683612eac565b505073eeeeeeeeeeeeeeeeeeeeeeeeeeeeeeeeeeeeeeed196001600160a01b03821601610df757610df26001600160a01b037f00000000000000000000000000000000000000000000000000000000000000001683612f14565b610e2b565b610e2b6001600160a01b0382167f000000000000000000000000000000000000000000000000000000000000000084612eac565b50505050565b6000806000600260655403610e585760405162461bcd60e51b815260040161082490615500565b600260655584610e7a5760405162461bcd60e51b815260040161082490615537565b6000610e8560355490565b90506000609d60009054906101000a90046001600160a01b03166001600160a01b0316633850c7bd6040518163ffffffff1660e01b815260040160e060405180830381865afa158015610edc573d6000803e3d6000fd5b505050506040513d601f19601f82011682018060405250810190610f00919061530a565b50505050505090506000821115610f4157600080610f1c6106fc565b91509150610f2b828a8661302a565b9650610f38818a8661302a565b95505050610f87565b609754610f81908290610f5d90600160a01b900460020b613073565b609754610f7390600160b81b900460020b613073565b610f7c8b613488565b6134f1565b90955093505b8415610fa557609e54610fa5906001600160a01b031633308861358c565b8315610fc357609f54610fc3906001600160a01b031633308761358c565b609754610ffc908290610fdf90600160a01b900460020b613073565b609754610ff590600160b81b900460020b613073565b88886135c4565b609d54609754604051633c8a7d8d60e01b81529295506001600160a01b0390911691633c8a7d8d9161104c913091600160a01b8104600290810b92600160b81b909204900b908990600401615557565b60408051808303816000875af115801561106a573d6000803e3d6000fd5b505050506040513d601f19601f8201168201806040525081019061108e9190615599565b505061109a8688613686565b7f55801cfe493000b734571da1694b21e7f66b11e8ce9fdaa0524ecb59105e73e786888787876040516110d19594939291906155bd565b60405180910390a1505060016065819055509250925092565b606060378054610662906152d0565b60008060008061110860355490565b905080156111275761111b818787613753565b9195509350915061122a565b609d5460408051633850c7bd60e01b815290516000926001600160a01b031691633850c7bd9160048083019260e09291908290030181865afa158015611171573d6000803e3d6000fd5b505050506040513d601f19601f82011682018060405250810190611195919061530a565b505050505050905060006111db826111be609760149054906101000a900460020b60020b613073565b6097546111d490600160b81b900460020b613073565b8b8b6135c4565b6097546001600160801b038216955090915061122290839061120690600160a01b900460020b613073565b60975461121c90600160b81b900460020b613073565b846134f1565b909650945050505b509250925092565b3361123b610c71565b6001600160a01b0316146112615760405162461bcd60e51b8152600401610824906153c5565b6127108461ffff1611156112875760405162461bcd60e51b8152600401610824906155f4565b6127108561ffff1611156112ad5760405162461bcd60e51b8152600401610824906155f4565b6127108361ffff1611156112d35760405162461bcd60e51b8152600401610824906155f4565b6040805161ffff8781168252868116602083015285168183015263ffffffff8416606082015290517f0b7615006627cf7664941bc288d4641731f895e102f95cb8690583ad7508faa89181900360800190a161ffff85161561134a576097805461ffff60d01b1916600160d01b61ffff8816021790555b61ffff84161561136f576097805461ffff60e01b1916600160e01b61ffff8716021790555b61ffff83161561139557609780546001600160f01b0316600160f01b61ffff8616021790555b63ffffffff8216156113b7576098805463ffffffff191663ffffffff84161790555b6001600160a01b038116156113eb5760988054600160301b600160d01b031916600160301b6001600160a01b038416021790555b5050505050565b3360009081526034602090815260408083206001600160a01b0386168452909152812054828110156114745760405162461bcd60e51b815260206004820152602560248201527f45524332303a2064656372656173656420616c6c6f77616e63652062656c6f77604482015264207a65726f60d81b6064820152608401610824565b611483338561083c86856153b2565b5060019392505050565b60006106f23384846124b9565b8181336001600160a01b037f000000000000000000000000000000000000000000000000000000000000000016146114e45760405162461bcd60e51b8152600401610824906154cf565b85156114f4576114f48786613862565b609d546000906001600160a01b031663514ea4bf61151061267f565b6040518263ffffffff1660e01b815260040161152e91815260200190565b60a060405180830381865afa15801561154b573d6000803e3d6000fd5b505050506040513d601f19601f8201168201806040525081019061156f919061541e565b505050509050611583818989898989613abb565b609d546000906001600160a01b031663514ea4bf61159f61267f565b6040518263ffffffff1660e01b81526004016115bd91815260200190565b60a060405180830381865afa1580156115da573d6000803e3d6000fd5b505050506040513d601f19601f820116820180604052508101906115fe919061541e565b505050509050816001600160801b0316816001600160801b03161161165f5760405162461bcd60e51b81526020600482015260176024820152766c6971756964697479206d75737420696e63726561736560481b6044820152606401610824565b609754604051600080516020615c868339815191529161169991600160a01b8204600290810b92600160b81b9004900b908690869061548e565b60405180910390a1505073eeeeeeeeeeeeeeeeeeeeeeeeeeeeeeeeeeeeeeed196001600160a01b03821601611700576116fb6001600160a01b037f00000000000000000000000000000000000000000000000000000000000000001683612f14565b611734565b6117346001600160a01b0382167f000000000000000000000000000000000000000000000000000000000000000084612eac565b50505050505050565b6000806000609d60009054906101000a90046001600160a01b03166001600160a01b0316633850c7bd6040518163ffffffff1660e01b815260040160e060405180830381865afa158015611795573d6000803e3d6000fd5b505050506040513d601f19601f820116820180604052508101906117b9919061530a565b50505050509150506117cb8482612239565b9250925050915091565b8181336001600160a01b037f0000000000000000000000000000000000000000000000000000000000000000161461181f5760405162461bcd60e51b8152600401610824906154cf565b600080611832609b54609c548888612d88565b6000609b819055609c559092509050811561187e57609e5461187e906001600160a01b03167f000000000000000000000000000000000000000000000000000000000000000084612eac565b8015610d9857609f54610d98906001600160a01b03167f000000000000000000000000000000000000000000000000000000000000000083612eac565b609d546001600160a01b031633146118e55760405162461bcd60e51b815260040161082490615611565b831561190257609e54611902906001600160a01b03163386612eac565b8215610e2b57609f54610e2b906001600160a01b03163385612eac565b600061192961267f565b905090565b600054610100900460ff1680611947575060005460ff16155b6119635760405162461bcd60e51b81526004016108249061563a565b600054610100900460ff16158015611985576000805461ffff19166101011790555b6119926000612710615688565b61ffff168561ffff1611156119b95760405162461bcd60e51b8152600401610824906156aa565b609d80546001600160a01b0319166001600160a01b03881690811790915560408051630dfe168160e01b81529051630dfe1681916004808201926020929091908290030181865afa158015611a12573d6000803e3d6000fd5b505050506040513d601f19601f82011682018060405250810190611a3691906156c8565b609e80546001600160a01b0319166001600160a01b03928316179055609d546040805163d21220a760e01b81529051919092169163d21220a79160048083019260209291908290030181865afa158015611a94573d6000803e3d6000fd5b505050506040513d601f19601f82011682018060405250810190611ab891906156c8565b609f80546001600160a01b039283166001600160a01b0319918216179091556098805460978054948716600160301b8102600160301b600160d01b031963ffffffff1961ffff8e16600160201b021665ffffffffffff199095169490941761012c17939093169290921790925562ffffff878116600160b81b02909316600165ffffff00000160a01b0319938916600160a01b02600165ffffff00000160a01b0390951694909417643e800c801960d31b179290921692909217179055611b7f8888613f83565b611b87614002565b8015611b99576000805461ff00191690555b5050505050505050565b33611bac610c71565b6001600160a01b031614611bd25760405162461bcd60e51b8152600401610824906153c5565b609854600160201b900461ffff1615611c135760405162461bcd60e51b815260206004820152600360248201526266656560e81b6044820152606401610824565b60008161ffff16118015611c3b5750611c2f6000612710615688565b61ffff168161ffff1611155b611c575760405162461bcd60e51b8152600401610824906156aa565b60405161ffff821681527f8a1ffb520c943072e654fc414750dbefad5b6d6311339d041901c4752782fad39060200160405180910390a16098805461ffff909216600160201b0261ffff60201b19909216919091179055565b33611cb9610c71565b6001600160a01b031614611cdf5760405162461bcd60e51b8152600401610824906153c5565b6001600160a01b038116611d465760405162461bcd60e51b815260206004820152602860248201527f4f776e61626c653a206e6577206d616e6167657220697320746865207a65726f604482015267206164647265737360c01b6064820152608401610824565b6097546040516001600160a01b03808416921690600080516020615ca683398151915290600090a3609780546001600160a01b0319166001600160a01b0392909216919091179055565b609d546001600160a01b03163314611dba5760405162461bcd60e51b815260040161082490615611565b6000841315611dda57609e54610df2906001600160a01b03163386612eac565b6000831315610e2b57609f54610e2b906001600160a01b03163385612eac565b6000806000600260655403611e215760405162461bcd60e51b815260040161082490615500565b600260655584611e5c5760405162461bcd60e51b815260206004820152600660248201526506275726e20360d41b6044820152606401610824565b6000611e6760355490565b609d549091506000906001600160a01b031663514ea4bf611e8661267f565b6040518263ffffffff1660e01b8152600401611ea491815260200190565b60a060405180830381865afa158015611ec1573d6000803e3d6000fd5b505050506040513d601f19601f82011682018060405250810190611ee5919061541e565b505050509050611ef53388614076565b6000611f0b88836001600160801b0316856141b3565b9050611f1681613488565b609754909450600090819081908190611f4590600160a01b8104600290810b91600160b81b9004900b8a6126da565b9350935093509350611f578282612a0d565b611f618282612ae6565b6040519193509150600080516020615ce683398151915290611f869084908490614e4d565b60405180910390a1609b54609954609e546040516370a0823160e01b815261203293929188916001600160a01b03909116906370a0823190611fcc903090600401614e39565b602060405180830381865afa158015611fe9573d6000803e3d6000fd5b505050506040513d601f19601f8201168201806040525081019061200d9190615475565b61201791906153b2565b61202191906153b2565b61202b91906153b2565b8d896141b3565b61203c90856154bc565b609c54609a54609f546040516370a0823160e01b8152939d506120799387916001600160a01b0316906370a0823190611fcc903090600401614e39565b61208390846154bc565b985089156120a257609e546120a2906001600160a01b03168c8c612eac565b88156120bf57609f546120bf906001600160a01b03168c8b612eac565b7f7239dff1718b550db7f36cbf69c665cfeb56d0e96b4fb76a5cba712961b655098b8d8c8c8c6040516120f69594939291906155bd565b60405180910390a15050505050505060016065819055509250925092565b6001600160a01b0383166121765760405162461bcd60e51b8152602060048201526024808201527f45524332303a20617070726f76652066726f6d20746865207a65726f206164646044820152637265737360e01b6064820152608401610824565b6001600160a01b0382166121d75760405162461bcd60e51b815260206004820152602260248201527f45524332303a20617070726f766520746f20746865207a65726f206164647265604482015261737360f01b6064820152608401610824565b6001600160a01b0383811660008181526034602090815260408083209487168084529482529182902085905590518481527f8c5be1e5ebec7d5bd14f71427d1e84f3dd0314c0f7b2291e5b200ac8c7c3b92591015b60405180910390a3505050565b609d546000908190819081908190819081906001600160a01b031663514ea4bf61226161267f565b6040518263ffffffff1660e01b815260040161227f91815260200190565b60a060405180830381865afa15801561229c573d6000803e3d6000fd5b505050506040513d601f19601f820116820180604052508101906122c0919061541e565b94509450945094509450612305896122e9609760149054906101000a900460020b60020b613073565b6097546122ff90600160b81b900460020b613073565b886134f1565b909750955060006001600160801b0383166123236001878c8a614261565b61232d91906154bc565b90506000826001600160801b03166123486000878d8b614261565b61235291906154bc565b905061235e8282612ae6565b609b54609954609e546040516370a0823160e01b8152949650929450909290916001600160a01b0316906370a082319061239c903090600401614e39565b602060405180830381865afa1580156123b9573d6000803e3d6000fd5b505050506040513d601f19601f820116820180604052508101906123dd9190615475565b6123e790856154bc565b6123f191906153b2565b6123fb91906153b2565b612405908a6154bc565b609c54609a54609f546040516370a0823160e01b8152939c50919290916001600160a01b0316906370a0823190612440903090600401614e39565b602060405180830381865afa15801561245d573d6000803e3d6000fd5b505050506040513d601f19601f820116820180604052508101906124819190615475565b61248b90846154bc565b61249591906153b2565b61249f91906153b2565b6124a990896154bc565b9750505050505050509250929050565b6001600160a01b03831661251d5760405162461bcd60e51b815260206004820152602560248201527f45524332303a207472616e736665722066726f6d20746865207a65726f206164604482015264647265737360d81b6064820152608401610824565b6001600160a01b03821661257f5760405162461bcd60e51b815260206004820152602360248201527f45524332303a207472616e7366657220746f20746865207a65726f206164647260448201526265737360e81b6064820152608401610824565b6001600160a01b038316600090815260336020526040902054818110156125f75760405162461bcd60e51b815260206004820152602660248201527f45524332303a207472616e7366657220616d6f756e7420657863656564732062604482015265616c616e636560d01b6064820152608401610824565b61260182826153b2565b6001600160a01b0380861660009081526033602052604080822093909355908516815290812080548492906126379084906154bc565b92505081905550826001600160a01b0316846001600160a01b0316600080516020615cc68339815191528460405161267191815260200190565b60405180910390a350505050565b6097546040516001600160601b03193060601b166020820152600160a01b820460e890811b6034830152600160b81b90920490911b6037820152600090603a0160405160208183030381529060405280519060200120905090565b609e546040516370a0823160e01b815260009182918291829182916001600160a01b0316906370a0823190612713903090600401614e39565b602060405180830381865afa158015612730573d6000803e3d6000fd5b505050506040513d601f19601f820116820180604052508101906127549190615475565b609f546040516370a0823160e01b81529192506000916001600160a01b03909116906370a082319061278a903090600401614e39565b602060405180830381865afa1580156127a7573d6000803e3d6000fd5b505050506040513d601f19601f820116820180604052508101906127cb9190615475565b609d5460405163a34123a760e01b815260028c810b60048301528b900b60248201526001600160801b038a1660448201529192506001600160a01b03169063a34123a79060640160408051808303816000875af1158015612830573d6000803e3d6000fd5b505050506040513d601f19601f820116820180604052508101906128549190615599565b609d546040516309e3d67b60e31b815230600482015260028d810b60248301528c900b60448201526001600160801b036064820181905260848201529298509096506001600160a01b031690634f1eb3d89060a40160408051808303816000875af11580156128c7573d6000803e3d6000fd5b505050506040513d601f19601f820116820180604052508101906128eb91906156e5565b5050609e546040516370a0823160e01b8152879184916001600160a01b03909116906370a0823190612921903090600401614e39565b602060405180830381865afa15801561293e573d6000803e3d6000fd5b505050506040513d601f19601f820116820180604052508101906129629190615475565b61296c91906153b2565b61297691906153b2565b609f546040516370a0823160e01b8152919550869183916001600160a01b0316906370a08231906129ab903090600401614e39565b602060405180830381865afa1580156129c8573d6000803e3d6000fd5b505050506040513d601f19601f820116820180604052508101906129ec9190615475565b6129f691906153b2565b612a0091906153b2565b9250505093509350935093565b612710612a1b600084615718565b612a259190615745565b609b6000828254612a3691906154bc565b909155506127109050612a4a600083615718565b612a549190615745565b609c6000828254612a6591906154bc565b909155505060985461271090612a8690600160201b900461ffff1684615718565b612a909190615745565b60996000828254612aa191906154bc565b909155505060985461271090612ac290600160201b900461ffff1683615718565b612acc9190615745565b609a6000828254612add91906154bc565b90915550505050565b6000806000612710609860049054906101000a900461ffff166000612b0b9190615759565b612b199061ffff1687615718565b612b239190615745565b60985490915060009061271090612b4590600160201b900461ffff1683615759565b612b539061ffff1687615718565b612b5d9190615745565b9050612b6982876153b2565b9350612b7581866153b2565b925050509250929050565b609d5460408051633850c7bd60e01b815290516000926001600160a01b031691633850c7bd9160048083019260e09291908290030181865afa158015612bca573d6000803e3d6000fd5b505050506040513d601f19601f82011682018060405250810190612bee919061530a565b50505050505090506000612c1b82612c088b60020b613073565b612c148b60020b613073565b8a8a6135c4565b90506001600160801b03811615612cc957609d54604051633c8a7d8d60e01b815260009182916001600160a01b0390911690633c8a7d8d90612c679030908f908f908990600401615557565b60408051808303816000875af1158015612c85573d6000803e3d6000fd5b505050506040513d601f19601f82011682018060405250810190612ca99190615599565b9092509050612cb8828a6153b2565b9850612cc481896153b2565b975050505b6000612cf86127108686612cdd5789612cdf565b8a5b612ce99190615718565b612cf39190615745565b61460d565b90506000811315612d1557612d128a8a8a8a858b8a614673565b50505b50505050505050505050565b33612d2a610c71565b6001600160a01b031614612d505760405162461bcd60e51b8152600401610824906153c5565b6097546040516000916001600160a01b031690600080516020615ca6833981519152908390a3609780546001600160a01b0319169055565b609e5460009081906001600160a01b0390811690841603612dfd57609754849061271090612dc190600160e01b900461ffff1689615718565b612dcb9190615745565b1015612de95760405162461bcd60e51b815260040161082490615774565b612df384876153b2565b9150849050612ea3565b609f546001600160a01b0390811690841603612e6d57609754849061271090612e3190600160e01b900461ffff1688615718565b612e3b9190615745565b1015612e595760405162461bcd60e51b815260040161082490615774565b612e6384866153b2565b9050859150612ea3565b60405162461bcd60e51b815260206004820152600b60248201526a3bb937b733903a37b5b2b760a91b6044820152606401610824565b94509492505050565b6040516001600160a01b038316602482015260448101829052612f0f90849063a9059cbb60e01b906064015b60408051601f198184030181529190526020810180516001600160e01b03166001600160e01b03199093169290921790915261488f565b505050565b80471015612f645760405162461bcd60e51b815260206004820152601d60248201527f416464726573733a20696e73756666696369656e742062616c616e63650000006044820152606401610824565b6000826001600160a01b03168260405160006040518083038185875af1925050503d8060008114612fb1576040519150601f19603f3d011682016040523d82523d6000602084013e612fb6565b606091505b5050905080612f0f5760405162461bcd60e51b815260206004820152603a60248201527f416464726573733a20756e61626c6520746f2073656e642076616c75652c20726044820152791958da5c1a595b9d081b585e481a185d99481c995d995c9d195960321b6064820152608401610824565b60006130378484846141b3565b9050600082806130495761304961572f565b848609111561084757600019811061306057600080fd5b8061306a81615796565b95945050505050565b60008060008360020b1261308a578260020b613097565b8260020b613097906157af565b90506130a6620d89e7196157cb565b60020b8111156130dc5760405162461bcd60e51b81526020600482015260016024820152601560fa1b6044820152606401610824565b6000816001166000036130f357600160801b613105565b6ffffcb933bd6fad37aa2d162d1a5940015b6001600160881b03169050600282161561313a576080613135826ffff97272373d413259a46990580e213a615718565b901c90505b600482161561316457608061315f826ffff2e50f5f656932ef12357cf3c7fdcc615718565b901c90505b600882161561318e576080613189826fffe5caca7e10e4e61c3624eaa0941cd0615718565b901c90505b60108216156131b85760806131b3826fffcb9843d60f6159c9db58835c926644615718565b901c90505b60208216156131e25760806131dd826fff973b41fa98c081472e6896dfb254c0615718565b901c90505b604082161561320c576080613207826fff2ea16466c96a3843ec78b326b52861615718565b901c90505b6080821615613236576080613231826ffe5dee046a99a2a811c461f1969c3053615718565b901c90505b61010082161561326157608061325c826ffcbe86c7900a88aedcffc83b479aa3a4615718565b901c90505b61020082161561328c576080613287826ff987a7253ac413176f2b074cf7815e54615718565b901c90505b6104008216156132b75760806132b2826ff3392b0822b70005940c7a398e4b70f3615718565b901c90505b6108008216156132e25760806132dd826fe7159475a2c29b7443b29c7fa6e889d9615718565b901c90505b61100082161561330d576080613308826fd097f3bdfd2022b8845ad8f792aa5825615718565b901c90505b612000821615613338576080613333826fa9f746462d870fdf8a65dc1f90e061e5615718565b901c90505b61400082161561336357608061335e826f70d869a156d2a1b890bb3df62baf32f7615718565b901c90505b61800082161561338e576080613389826f31be135f97d08fd981231505542fcfa6615718565b901c90505b620100008216156133ba5760806133b5826f09aa508b5b7a84e1c677de54f3e99bc9615718565b901c90505b620200008216156133e55760806133e0826e5d6af8dedb81196699c329225ee604615718565b901c90505b6204000082161561340f57608061340a826d2216e584f5fa1ea926041bedfe98615718565b901c90505b62080000821615613437576080613432826b048a170391f7dc42444e8fa2615718565b901c90505b60008460020b13156134525761344f81600019615745565b90505b613460600160201b826157ed565b1561346c57600161346f565b60005b6134809060ff16602083901c6154bc565b949350505050565b6000600160801b82106134ed5760405162461bcd60e51b815260206004820152602760248201527f53616665436173743a2076616c756520646f65736e27742066697420696e20316044820152663238206269747360c81b6064820152608401610824565b5090565b600080836001600160a01b0316856001600160a01b03161115613512579293925b846001600160a01b0316866001600160a01b03161161353d57613536858585614961565b9150612ea3565b836001600160a01b0316866001600160a01b0316101561357657613562868585614961565b915061356f8587856149cb565b9050612ea3565b6135818585856149cb565b905094509492505050565b6040516001600160a01b0380851660248301528316604482015260648101829052610e2b9085906323b872dd60e01b90608401612ed8565b6000836001600160a01b0316856001600160a01b031611156135e4579293925b846001600160a01b0316866001600160a01b03161161360f57613608858585614a15565b905061306a565b836001600160a01b0316866001600160a01b03161015613671576000613636878686614a15565b90506000613645878986614a7f565b9050806001600160801b0316826001600160801b0316106136665780613668565b815b9250505061306a565b61367c858584614a7f565b9695505050505050565b6001600160a01b0382166136dc5760405162461bcd60e51b815260206004820152601f60248201527f45524332303a206d696e7420746f20746865207a65726f2061646472657373006044820152606401610824565b80603560008282546136ee91906154bc565b90915550506001600160a01b0382166000908152603360205260408120805483929061371b9084906154bc565b90915550506040518181526001600160a01b03831690600090600080516020615cc68339815191529060200160405180910390a35050565b60008060008060006137636106fc565b915091508160001480156137775750600081115b1561378e576137878689836141b3565b925061383d565b8015801561379c5750600082115b156137ac576137878789846141b3565b811580156137b8575080155b156137df5760405162461bcd60e51b81526020600482015260006024820152604401610824565b60006137ec888a856141b3565b905060006137fb888b856141b3565b905060008211801561380d5750600081115b6138295760405162461bcd60e51b815260040161082490615537565b8082106138365780613838565b815b945050505b61384883838a61302a565b945061385583828a61302a565b9350505093509350939050565b6040805160028082526060820183526000926020830190803683375050609854825192935063ffffffff16918391506000906138a0576138a0615801565b602002602001019063ffffffff16908163ffffffff16815250506000816001815181106138cf576138cf615801565b63ffffffff90921660209283029190910190910152609d5460405163883bdbfd60e01b81526000916001600160a01b03169063883bdbfd90613915908590600401615817565b600060405180830381865afa158015613932573d6000803e3d6000fd5b505050506040513d6000823e601f3d908101601f1916820160405261395a919081019061590a565b509050805160021461399a5760405162461bcd60e51b815260206004820152600960248201526830b93930bc903632b760b91b6044820152606401610824565b6098548151600091829163ffffffff90911660060b90849083906139c0576139c0615801565b6020026020010151846001815181106139db576139db615801565b60200260200101510360060b816139f4576139f461572f565b059050613a038160020b613073565b6097549092506000915061271090613a2690600160f01b900461ffff16846159cc565b613a3091906159fe565b90508415613a7857613a428183615a24565b6001600160a01b0316866001600160a01b03161015613a735760405162461bcd60e51b815260040161082490615a44565b613ab3565b613a828183615a6b565b6001600160a01b0316866001600160a01b03161115613ab35760405162461bcd60e51b815260040161082490615a44565b505050505050565b609b54609954609e546040516370a0823160e01b815260009392916001600160a01b0316906370a0823190613af4903090600401614e39565b602060405180830381865afa158015613b11573d6000803e3d6000fd5b505050506040513d601f19601f82011682018060405250810190613b359190615475565b613b3f91906153b2565b613b4991906153b2565b609c54609a54609f546040516370a0823160e01b81529394506000936001600160a01b03909116906370a0823190613b85903090600401614e39565b602060405180830381865afa158015613ba2573d6000803e3d6000fd5b505050506040513d601f19601f82011682018060405250810190613bc69190615475565b613bd091906153b2565b613bda91906153b2565b6097549091506000908190613c0590600160a01b8104600290810b91600160b81b9004900b8c6126da565b935093505050613c158282612a0d565b613c1f8282612ae6565b6040519193509150600080516020615ce683398151915290613c449084908490614e4d565b60405180910390a1613c5684836154bc565b9150613c6283826154bc565b609e549091506001600160a01b0390811690861603613def57609754869061271090613c9990600160d01b900461ffff1685615718565b613ca39190615745565b1015613cc15760405162461bcd60e51b815260040161082490615774565b609b54609954609e546040516370a0823160e01b8152899392916001600160a01b0316906370a0823190613cf9903090600401614e39565b602060405180830381865afa158015613d16573d6000803e3d6000fd5b505050506040513d601f19601f82011682018060405250810190613d3a9190615475565b613d4491906153b2565b613d4e91906153b2565b613d5891906153b2565b609c54609a54609f546040516370a0823160e01b8152939750919290916001600160a01b0316906370a0823190613d93903090600401614e39565b602060405180830381865afa158015613db0573d6000803e3d6000fd5b505050506040513d601f19601f82011682018060405250810190613dd49190615475565b613dde91906153b2565b613de891906153b2565b9250613f5c565b609f546001600160a01b0390811690861603612e6d57609754869061271090613e2390600160d01b900461ffff1684615718565b613e2d9190615745565b1015613e4b5760405162461bcd60e51b815260040161082490615774565b609b54609954609e546040516370a0823160e01b81526001600160a01b03909116906370a0823190613e81903090600401614e39565b602060405180830381865afa158015613e9e573d6000803e3d6000fd5b505050506040513d601f19601f82011682018060405250810190613ec29190615475565b613ecc91906153b2565b613ed691906153b2565b609c54609a54609f546040516370a0823160e01b815293975089936001600160a01b03909116906370a0823190613f11903090600401614e39565b602060405180830381865afa158015613f2e573d6000803e3d6000fd5b505050506040513d601f19601f82011682018060405250810190613f529190615475565b613dd491906153b2565b609754612d1590600160a01b8104600290810b91600160b81b9004900b86868d8d8d612b80565b600054610100900460ff1680613f9c575060005460ff16155b613fb85760405162461bcd60e51b81526004016108249061563a565b600054610100900460ff16158015613fda576000805461ffff19166101011790555b613fe2614ab5565b613fec8383614b1f565b8015612f0f576000805461ff0019169055505050565b600054610100900460ff168061401b575060005460ff16155b6140375760405162461bcd60e51b81526004016108249061563a565b600054610100900460ff16158015614059576000805461ffff19166101011790555b614061614ba6565b8015614073576000805461ff00191690555b50565b6001600160a01b0382166140d65760405162461bcd60e51b815260206004820152602160248201527f45524332303a206275726e2066726f6d20746865207a65726f206164647265736044820152607360f81b6064820152608401610824565b6001600160a01b0382166000908152603360205260409020548181101561414a5760405162461bcd60e51b815260206004820152602260248201527f45524332303a206275726e20616d6f756e7420657863656564732062616c616e604482015261636560f01b6064820152608401610824565b61415482826153b2565b6001600160a01b038416600090815260336020526040812091909155603580548492906141829084906153b2565b90915550506040518281526000906001600160a01b03851690600080516020615cc68339815191529060200161222c565b60008080600019858709858702925082811083820303915050806000036141ec57600084116141e157600080fd5b508290049050610847565b8084116141f857600080fd5b60008486880960026001871981018816978890046003810283188082028403028082028403028082028403028082028403028082028403029081029092039091026000889003889004909101858311909403939093029303949094049190911702949350505050565b600080600080871561440157609d60009054906101000a90046001600160a01b03166001600160a01b031663f30583996040518163ffffffff1660e01b8152600401602060405180830381865afa1580156142c0573d6000803e3d6000fd5b505050506040513d601f19601f820116820180604052508101906142e49190615475565b609d5460975460405163f30dba9360e01b81529293506001600160a01b039091169163f30dba939161432491600160a01b90910460020b90600401614f3e565b61010060405180830381865afa158015614342573d6000803e3d6000fd5b505050506040513d601f19601f820116820180604052508101906143669190615a8b565b5050609d5460975460405163f30dba9360e01b8152959a506001600160a01b03909116965063f30dba9395506143af94600160b81b90910460020b93506004019150614f3e9050565b61010060405180830381865afa1580156143cd573d6000803e3d6000fd5b505050506040513d601f19601f820116820180604052508101906143f19190615a8b565b5093975061458f95505050505050565b609d60009054906101000a90046001600160a01b03166001600160a01b031663461413196040518163ffffffff1660e01b8152600401602060405180830381865afa158015614454573d6000803e3d6000fd5b505050506040513d601f19601f820116820180604052508101906144789190615475565b609d5460975460405163f30dba9360e01b81529293506001600160a01b039091169163f30dba93916144b891600160a01b90910460020b90600401614f3e565b61010060405180830381865afa1580156144d6573d6000803e3d6000fd5b505050506040513d601f19601f820116820180604052508101906144fa9190615a8b565b5050609d5460975460405163f30dba9360e01b8152949a506001600160a01b03909116965063f30dba9395506145429450600160b81b900460020b926004019150614f3e9050565b61010060405180830381865afa158015614560573d6000803e3d6000fd5b505050506040513d601f19601f820116820180604052508101906145849190615a8b565b509297505050505050505b609754600090600160a01b9004600290810b9088900b126145b15750826145b6565b508281035b609754600090600160b81b9004600290810b9089900b12156145d95750826145de565b508282035b8183038190036145fe6001600160801b0389168b8303600160801b6141b3565b9b9a5050505050505050505050565b6000600160ff1b82106134ed5760405162461bcd60e51b815260206004820152602860248201527f53616665436173743a2076616c756520646f65736e27742066697420696e2061604482015267371034b73a191a9b60c11b6064820152608401610824565b609d54604051630251596160e31b81523060048201528215156024820152604481018590526001600160a01b03848116606483015260a06084830152600060a4830181905292839283928392169063128acb089060c40160408051808303816000875af11580156146e8573d6000803e3d6000fd5b505050506040513d601f19601f8201168201806040525081019061470c9190615599565b915091508161471a8a61460d565b6147249190615b27565b9350806147308961460d565b61473a9190615b27565b92506000609d60009054906101000a90046001600160a01b03166001600160a01b0316633850c7bd6040518163ffffffff1660e01b815260040160e060405180830381865afa158015614791573d6000803e3d6000fd5b505050506040513d601f19601f820116820180604052508101906147b5919061530a565b505050505050905060006147e2826147cf8f60020b613073565b6147db8f60020b613073565b89896135c4565b90506001600160801b0381161561487f57609d60009054906101000a90046001600160a01b03166001600160a01b0316633c8a7d8d308f8f856040518563ffffffff1660e01b815260040161483a9493929190615557565b60408051808303816000875af1158015614858573d6000803e3d6000fd5b505050506040513d601f19601f8201168201806040525081019061487c9190615599565b50505b5050505097509795505050505050565b60006148e4826040518060400160405280602081526020017f5361666545524332303a206c6f772d6c6576656c2063616c6c206661696c6564815250856001600160a01b0316614c169092919063ffffffff16565b805190915015612f0f57808060200190518101906149029190615b47565b612f0f5760405162461bcd60e51b815260206004820152602a60248201527f5361666545524332303a204552433230206f7065726174696f6e20646964206e6044820152691bdd081cdd58d8d9595960b21b6064820152608401610824565b6000826001600160a01b0316846001600160a01b03161115614981579192915b6001600160a01b0384166149c1600160601b600160e01b03606085901b166149a98787615a24565b6001600160a01b0316866001600160a01b03166141b3565b6134809190615745565b6000826001600160a01b0316846001600160a01b031611156149eb579192915b6134806001600160801b038316614a028686615a24565b6001600160a01b0316600160601b6141b3565b6000826001600160a01b0316846001600160a01b03161115614a35579192915b6000614a58856001600160a01b0316856001600160a01b0316600160601b6141b3565b905061306a614a7a8483614a6c8989615a24565b6001600160a01b03166141b3565b614c25565b6000826001600160a01b0316846001600160a01b03161115614a9f579192915b613480614a7a83600160601b614a6c8888615a24565b600054610100900460ff1680614ace575060005460ff16155b614aea5760405162461bcd60e51b81526004016108249061563a565b600054610100900460ff16158015614061576000805461ffff19166101011790558015614073576000805461ff001916905550565b600054610100900460ff1680614b38575060005460ff16155b614b545760405162461bcd60e51b81526004016108249061563a565b600054610100900460ff16158015614b76576000805461ffff19166101011790555b6036614b828482615baa565b506037614b8f8382615baa565b508015612f0f576000805461ff0019169055505050565b600054610100900460ff1680614bbf575060005460ff16155b614bdb5760405162461bcd60e51b81526004016108249061563a565b600054610100900460ff16158015614bfd576000805461ffff19166101011790555b60016065558015614073576000805461ff001916905550565b60606134808484600085614c40565b806001600160801b0381168114614c3b57600080fd5b919050565b606082471015614ca15760405162461bcd60e51b815260206004820152602660248201527f416464726573733a20696e73756666696369656e742062616c616e636520666f6044820152651c8818d85b1b60d21b6064820152608401610824565b843b614cef5760405162461bcd60e51b815260206004820152601d60248201527f416464726573733a2063616c6c20746f206e6f6e2d636f6e74726163740000006044820152606401610824565b600080866001600160a01b03168587604051614d0b9190615c69565b60006040518083038185875af1925050503d8060008114614d48576040519150601f19603f3d011682016040523d82523d6000602084013e614d4d565b606091505b5091509150614d5d828286614d68565b979650505050505050565b60608315614d77575081610847565b825115614d875782518084602001fd5b8160405162461bcd60e51b81526004016108249190614dc5565b60005b83811015614dbc578181015183820152602001614da4565b50506000910152565b6020815260008251806020840152614de4816040850160208701614da1565b601f01601f19169190910160400192915050565b6001600160a01b038116811461407357600080fd5b60008060408385031215614e2057600080fd5b8235614e2b81614df8565b946020939093013593505050565b6001600160a01b0391909116815260200190565b918252602082015260400190565b600080600060608486031215614e7057600080fd5b8335614e7b81614df8565b92506020840135614e8b81614df8565b929592945050506040919091013590565b8060020b811461407357600080fd5b801515811461407357600080fd5b600080600080600060a08688031215614ed157600080fd5b8535614edc81614e9c565b94506020860135614eec81614e9c565b93506040860135614efc81614df8565b9250606086013591506080860135614f1381614eab565b809150509295509295909350565b600060208284031215614f3357600080fd5b813561084781614df8565b60029190910b815260200190565b60008060408385031215614f5f57600080fd5b823591506020830135614f7181614df8565b809150509250929050565b60008060408385031215614f8f57600080fd5b50508035926020909101359150565b61ffff8116811461407357600080fd5b63ffffffff8116811461407357600080fd5b600080600080600060a08688031215614fd857600080fd5b8535614fe381614f9e565b94506020860135614ff381614f9e565b9350604086013561500381614f9e565b9250606086013561501381614fae565b91506080860135614f1381614df8565b600080600080600060a0868803121561503b57600080fd5b853561504681614df8565b945060208601359350604086013561505d81614eab565b9250606086013591506080860135614f1381614df8565b60008083601f84011261508657600080fd5b5081356001600160401b0381111561509d57600080fd5b6020830191508360208285010111156150b557600080fd5b9250929050565b600080600080606085870312156150d257600080fd5b843593506020850135925060408501356001600160401b038111156150f657600080fd5b61510287828801615074565b95989497509550505050565b6000806040838503121561512157600080fd5b823561512c81614df8565b91506020830135614f7181614df8565b634e487b7160e01b600052604160045260246000fd5b604051601f8201601f191681016001600160401b038111828210171561517a5761517a61513c565b604052919050565b600082601f83011261519357600080fd5b81356001600160401b038111156151ac576151ac61513c565b6151bf601f8201601f1916602001615152565b8181528460208386010111156151d457600080fd5b816020850160208301376000918101602001919091529392505050565b600080600080600080600060e0888a03121561520c57600080fd5b87356001600160401b038082111561522357600080fd5b61522f8b838c01615182565b985060208a013591508082111561524557600080fd5b506152528a828b01615182565b965050604088013561526381614df8565b9450606088013561527381614f9e565b9350608088013561528381614e9c565b925060a088013561529381614e9c565b915060c08801356152a381614df8565b8091505092959891949750929550565b6000602082840312156152c557600080fd5b813561084781614f9e565b600181811c908216806152e457607f821691505b60208210810361530457634e487b7160e01b600052602260045260246000fd5b50919050565b600080600080600080600060e0888a03121561532557600080fd5b875161533081614df8565b602089015190975061534181614e9c565b604089015190965061535281614f9e565b606089015190955061536381614f9e565b608089015190945061537481614f9e565b60a089015190935060ff8116811461538b57600080fd5b60c08901519092506152a381614eab565b634e487b7160e01b600052601160045260246000fd5b818103818111156106f6576106f661539c565b60208082526022908201527f4f776e61626c653a2063616c6c6572206973206e6f7420746865206d616e616760408201526132b960f11b606082015260800190565b80516001600160801b0381168114614c3b57600080fd5b600080600080600060a0868803121561543657600080fd5b61543f86615407565b9450602086015193506040860151925061545b60608701615407565b915061546960808701615407565b90509295509295909350565b60006020828403121561548757600080fd5b5051919050565b600294850b81529290930b60208301526001600160801b039081166040830152909116606082015260800190565b808201808211156106f6576106f661539c565b60208082526017908201527647656c61746f666965643a204f6e6c792067656c61746f60481b604082015260600190565b6020808252601f908201527f5265656e7472616e637947756172643a207265656e7472616e742063616c6c00604082015260600190565b60208082526006908201526506d696e7420360d41b604082015260600190565b6001600160a01b03949094168452600292830b6020850152910b60408301526001600160801b0316606082015260a06080820181905260009082015260c00190565b600080604083850312156155ac57600080fd5b505080516020909101519092909150565b6001600160a01b039590951685526020850193909352604084019190915260608301526001600160801b0316608082015260a00190565b60208082526003908201526242505360e81b604082015260600190565b6020808252600f908201526e31b0b6363130b1b59031b0b63632b960891b604082015260600190565b6020808252602e908201527f496e697469616c697a61626c653a20636f6e747261637420697320616c72656160408201526d191e481a5b9a5d1a585b1a5e995960921b606082015260800190565b61ffff8281168282160390808211156156a3576156a361539c565b5092915050565b6020808252600490820152636d42505360e01b604082015260600190565b6000602082840312156156da57600080fd5b815161084781614df8565b600080604083850312156156f857600080fd5b61570183615407565b915061570f60208401615407565b90509250929050565b80820281158282048414176106f6576106f661539c565b634e487b7160e01b600052601260045260246000fd5b6000826157545761575461572f565b500490565b61ffff8181168382160190808211156156a3576156a361539c565b602080825260089082015267686967682066656560c01b604082015260600190565b6000600182016157a8576157a861539c565b5060010190565b6000600160ff1b82016157c4576157c461539c565b5060000390565b60008160020b627fffff1981036157e4576157e461539c565b60000392915050565b6000826157fc576157fc61572f565b500690565b634e487b7160e01b600052603260045260246000fd5b6020808252825182820181905260009190848201906040850190845b8181101561585557835163ffffffff1683529284019291840191600101615833565b50909695505050505050565b60006001600160401b0382111561587a5761587a61513c565b5060051b60200190565b8051600681900b8114614c3b57600080fd5b600082601f8301126158a757600080fd5b815160206158bc6158b783615861565b615152565b82815260059290921b840181019181810190868411156158db57600080fd5b8286015b848110156158ff5780516158f281614df8565b83529183019183016158df565b509695505050505050565b6000806040838503121561591d57600080fd5b82516001600160401b038082111561593457600080fd5b818501915085601f83011261594857600080fd5b815160206159586158b783615861565b82815260059290921b8401810191818101908984111561597757600080fd5b948201945b8386101561599c5761598d86615884565b8252948201949082019061597c565b918801519196509093505050808211156159b557600080fd5b506159c285828601615896565b9150509250929050565b6001600160a01b038281168282168181028316929181158285048214176159f5576159f561539c565b50505092915050565b60006001600160a01b0383811680615a1857615a1861572f565b92169190910492915050565b6001600160a01b038281168282160390808211156156a3576156a361539c565b6020808252600d908201526c6869676820736c69707061676560981b604082015260600190565b6001600160a01b038181168382160190808211156156a3576156a361539c565b600080600080600080600080610100898b031215615aa857600080fd5b615ab189615407565b9750602089015180600f0b8114615ac757600080fd5b60408a015160608b015191985096509450615ae460808a01615884565b935060a0890151615af481614df8565b60c08a0151909350615b0581614fae565b60e08a0151909250615b1681614eab565b809150509295985092959890939650565b81810360008312801583831316838312821617156156a3576156a361539c565b600060208284031215615b5957600080fd5b815161084781614eab565b601f821115612f0f57600081815260208120601f850160051c81016020861015615b8b5750805b601f850160051c820191505b81811015613ab357828155600101615b97565b81516001600160401b03811115615bc357615bc361513c565b615bd781615bd184546152d0565b84615b64565b602080601f831160018114615c0c5760008415615bf45750858301515b600019600386901b1c1916600185901b178555613ab3565b600085815260208120601f198616915b82811015615c3b57888601518255948401946001909101908401615c1c565b5085821015615c595787850151600019600388901b60f8161c191681555b5050505050600190811b01905550565b60008251615c7b818460208701614da1565b919091019291505056fec749f9ae947d4734cf1569606a8a347391ae94a063478aa853aeff48ac5f99e88be0079c531659141344cd1fd0a4f28419497f9722a3daafe3b4186f6b6457e0ddf252ad1be2c89b69c2b068fc378daa952ba7f163c4a11628f55a4df523b3efc28ad1de9c0c32e5394ba60323e44d8d9536312236a47231772e448a3e49de42a2646970667358221220a11bde499516b0a2e8e737821292815fcefc66549a9729f24ea128d34ed6027364736f6c63430008130033",
  "devdoc": {
    "events": {
      "Approval(address,address,uint256)": {
        "details": "Emitted when the allowance of a `spender` for an `owner` is set by a call to {approve}. `value` is the new allowance."
      },
      "Transfer(address,address,uint256)": {
        "details": "Emitted when `value` tokens are moved from one account (`from`) to another (`to`). Note that `value` may be zero."
      }
    },
    "kind": "dev",
    "methods": {
      "allowance(address,address)": {
        "details": "See {IERC20-allowance}."
      },
      "approve(address,uint256)": {
        "details": "See {IERC20-approve}. Requirements: - `spender` cannot be the zero address."
      },
      "balanceOf(address)": {
        "details": "See {IERC20-balanceOf}."
      },
      "burn(uint256,address)": {
        "params": {
          "burnAmount": "The number of G-UNI tokens to burn",
          "receiver": "The account to receive the underlying amounts of token0 and token1"
        },
        "returns": {
          "amount0": "amount of token0 transferred to receiver for burning `burnAmount`",
          "amount1": "amount of token1 transferred to receiver for burning `burnAmount`",
          "liquidityBurned": "amount of liquidity removed from the underlying Uniswap V3 position"
        }
      },
      "decimals()": {
        "details": "Returns the number of decimals used to get its user representation. For example, if `decimals` equals `2`, a balance of `505` tokens should be displayed to a user as `5,05` (`505 / 10 ** 2`). Tokens usually opt for a value of 18, imitating the relationship between Ether and Wei. This is the value {ERC20} uses, unless this function is overridden; NOTE: This information is only used for _display_ purposes: it in no way affects any of the arithmetic of the contract, including {IERC20-balanceOf} and {IERC20-transfer}."
      },
      "decreaseAllowance(address,uint256)": {
        "details": "Atomically decreases the allowance granted to `spender` by the caller. This is an alternative to {approve} that can be used as a mitigation for problems described in {IERC20-approve}. Emits an {Approval} event indicating the updated allowance. Requirements: - `spender` cannot be the zero address. - `spender` must have allowance for the caller of at least `subtractedValue`."
      },
      "executiveRebalance(int24,int24,uint160,uint256,bool)": {
        "details": "When changing the range the inventory of token0 and token1 may be rebalanced with a swap to deposit as much liquidity as possible into the new position. Swap parameters can be computed by simulating the whole operation: remove all liquidity, deposit as much as possible into new position, then observe how much of token0 or token1 is leftover. Swap a proportion of this leftover to deposit more liquidity into the position, since any leftover will be unused and sit idle until the next rebalance.",
        "params": {
          "newLowerTick": "The new lower bound of the position's range",
          "newUpperTick": "The new upper bound of the position's range",
          "swapAmountBPS": "amount of token to swap as proportion of total. Pass 0 to ignore swap.",
          "swapThresholdPrice": "slippage parameter on the swap as a max or min sqrtPriceX96",
          "zeroForOne": "Which token to input into the swap (true = token0, false = token1)"
        }
      },
      "getMintAmounts(uint256,uint256)": {
        "params": {
          "amount0Max": "The maximum amount of token1 to forward on mint"
        },
        "returns": {
          "amount0": "actual amount of token0 to forward when minting `mintAmount`",
          "amount1": "actual amount of token1 to forward when minting `mintAmount`",
          "mintAmount": "maximum number of G-UNI tokens to mint"
        }
      },
      "getUnderlyingBalances()": {
        "returns": {
          "amount0Current": "current total underlying balance of token0",
          "amount1Current": "current total underlying balance of token1"
        }
      },
      "increaseAllowance(address,uint256)": {
        "details": "Atomically increases the allowance granted to `spender` by the caller. This is an alternative to {approve} that can be used as a mitigation for problems described in {IERC20-approve}. Emits an {Approval} event indicating the updated allowance. Requirements: - `spender` cannot be the zero address."
      },
      "initialize(string,string,address,uint16,int24,int24,address)": {
        "params": {
          "_lowerTick": "initial upperTick (only changeable with executiveRebalance)",
          "_managerFeeBPS": "proportion of fees earned that go to manager treasury note that the 4 above params are NOT UPDATEABLE AFTER INILIALIZATION",
          "_manager_": "address of manager (ownership can be transferred)",
          "_name": "name of G-UNI token",
          "_pool": "address of Uniswap V3 pool",
          "_symbol": "symbol of G-UNI token"
        }
      },
      "initializeManagerFee(uint16)": {
        "params": {
          "_managerFeeBPS": "proportion of fees earned that are credited to manager in Basis Points"
        }
      },
      "manager()": {
        "details": "Returns the address of the current manager."
      },
      "mint(uint256,address)": {
        "details": "to compute the amouint of tokens necessary to mint `mintAmount` see getMintAmounts",
        "params": {
          "mintAmount": "The number of G-UNI tokens to mint",
          "receiver": "The account to receive the minted tokens"
        },
        "returns": {
          "amount0": "amount of token0 transferred from msg.sender to mint `mintAmount`",
          "amount1": "amount of token1 transferred from msg.sender to mint `mintAmount`",
          "liquidityMinted": "amount of liquidity added to the underlying Uniswap V3 position"
        }
      },
      "name()": {
        "details": "Returns the name of the token."
      },
      "renounceOwnership()": {
        "details": "Leaves the contract without manager. It will not be possible to call `onlyManager` functions anymore. Can only be called by the current manager. NOTE: Renouncing ownership will leave the contract without an manager, thereby removing any functionality that is only available to the manager."
      },
      "symbol()": {
        "details": "Returns the symbol of the token, usually a shorter version of the name."
      },
      "totalSupply()": {
        "details": "See {IERC20-totalSupply}."
      },
      "transfer(address,uint256)": {
        "details": "See {IERC20-transfer}. Requirements: - `recipient` cannot be the zero address. - the caller must have a balance of at least `amount`."
      },
      "transferFrom(address,address,uint256)": {
        "details": "See {IERC20-transferFrom}. Emits an {Approval} event indicating the updated allowance. This is not required by the EIP. See the note at the beginning of {ERC20}. Requirements: - `sender` and `recipient` cannot be the zero address. - `sender` must have a balance of at least `amount`. - the caller must have allowance for ``sender``'s tokens of at least `amount`."
      },
      "transferOwnership(address)": {
        "details": "Transfers ownership of the contract to a new account (`newOwner`). Can only be called by the current manager."
      },
      "updateGelatoParams(uint16,uint16,uint16,uint32,address)": {
        "params": {
          "newRebalanceBPS": "controls frequency of gelato rebalances: gas fee to execute rebalance can be gelatoRebalanceBPS proportion of fees earned since last rebalance",
          "newSlippageBPS": "maximum slippage on swaps during gelato rebalance",
          "newSlippageInterval": "length of time for TWAP used in computing slippage on swaps",
          "newTreasury": "address where managerFee withdrawals are sent",
          "newWithdrawBPS": "controls frequency of gelato withdrawals: gas fee to execute withdrawal can be gelatoWithdrawBPS proportion of fees accrued since last withdraw"
        }
      }
    },
    "version": 1
  },
  "userdoc": {
    "kind": "user",
    "methods": {
      "burn(uint256,address)": {
        "notice": "burn G-UNI tokens (fractional shares of a Uniswap V3 position) and receive tokens"
      },
      "executiveRebalance(int24,int24,uint160,uint256,bool)": {
        "notice": "Change the range of underlying UniswapV3 position, only manager can call"
      },
      "getMintAmounts(uint256,uint256)": {
        "notice": "compute maximum G-UNI tokens that can be minted from `amount0Max` and `amount1Max`"
      },
      "getUnderlyingBalances()": {
        "notice": "compute total underlying holdings of the G-UNI token supply includes current liquidity invested in uniswap position, current fees earned and any uninvested leftover (but does not include manager or gelato fees accrued)"
      },
      "initialize(string,string,address,uint16,int24,int24,address)": {
        "notice": "initialize storage variables on a new G-UNI pool, only called once"
      },
      "initializeManagerFee(uint16)": {
        "notice": "initializeManagerFee sets a managerFee, only manager can call. If a manager fee was not set in the initialize function it can be set here but ONLY ONCE- after it is set to a non-zero value, managerFee can never be set again."
      },
      "mint(uint256,address)": {
        "notice": "mint fungible G-UNI tokens, fractional shares of a Uniswap V3 position"
      },
      "rebalance(uint160,uint256,bool,uint256,address)": {
        "notice": "Reinvest fees earned into underlying position, only gelato executors can call Position bounds CANNOT be altered by gelato, only manager may via executiveRebalance. Frequency of rebalance configured with gelatoRebalanceBPS, alterable by manager."
      },
      "uniswapV3MintCallback(uint256,uint256,bytes)": {
        "notice": "Uniswap V3 callback fn, called back on pool.mint"
      },
      "uniswapV3SwapCallback(int256,int256,bytes)": {
        "notice": "Uniswap v3 callback fn, called back on pool.swap"
      },
      "updateGelatoParams(uint16,uint16,uint16,uint32,address)": {
        "notice": "change configurable parameters, only manager can call"
      },
      "withdrawGelatoBalance(uint256,address)": {
        "notice": "withdraw gelato fees accrued, only gelato executors can call. Frequency of withdrawals configured with gelatoWithdrawBPS, alterable by manager."
      },
      "withdrawManagerBalance(uint256,address)": {
        "notice": "withdraw manager fees accrued, only gelato executors can call. Target account to receive fees is managerTreasury, alterable by manager. Frequency of withdrawals configured with gelatoWithdrawBPS, alterable by manager."
      }
    },
    "version": 1
  },
  "storageLayout": {
    "storage": [
      {
        "astId": 5,
        "contract": "contracts/GUniPool.sol:GUniPool",
        "label": "_initialized",
        "offset": 0,
        "slot": "0",
        "type": "t_bool"
      },
      {
        "astId": 8,
        "contract": "contracts/GUniPool.sol:GUniPool",
        "label": "_initializing",
        "offset": 1,
        "slot": "0",
        "type": "t_bool"
      },
      {
        "astId": 784,
        "contract": "contracts/GUniPool.sol:GUniPool",
        "label": "__gap",
        "offset": 0,
        "slot": "1",
        "type": "t_array(t_uint256)50_storage"
      },
      {
        "astId": 122,
        "contract": "contracts/GUniPool.sol:GUniPool",
        "label": "_balances",
        "offset": 0,
        "slot": "51",
        "type": "t_mapping(t_address,t_uint256)"
      },
      {
        "astId": 128,
        "contract": "contracts/GUniPool.sol:GUniPool",
        "label": "_allowances",
        "offset": 0,
        "slot": "52",
        "type": "t_mapping(t_address,t_mapping(t_address,t_uint256))"
      },
      {
        "astId": 130,
        "contract": "contracts/GUniPool.sol:GUniPool",
        "label": "_totalSupply",
        "offset": 0,
        "slot": "53",
        "type": "t_uint256"
      },
      {
        "astId": 132,
        "contract": "contracts/GUniPool.sol:GUniPool",
        "label": "_name",
        "offset": 0,
        "slot": "54",
        "type": "t_string_storage"
      },
      {
        "astId": 134,
        "contract": "contracts/GUniPool.sol:GUniPool",
        "label": "_symbol",
        "offset": 0,
        "slot": "55",
        "type": "t_string_storage"
      },
      {
        "astId": 636,
        "contract": "contracts/GUniPool.sol:GUniPool",
        "label": "__gap",
        "offset": 0,
        "slot": "56",
        "type": "t_array(t_uint256)45_storage"
      },
      {
        "astId": 59,
        "contract": "contracts/GUniPool.sol:GUniPool",
        "label": "_status",
        "offset": 0,
        "slot": "101",
        "type": "t_uint256"
      },
      {
        "astId": 102,
        "contract": "contracts/GUniPool.sol:GUniPool",
        "label": "__gap",
        "offset": 0,
        "slot": "102",
        "type": "t_array(t_uint256)49_storage"
      },
      {
        "astId": 6441,
        "contract": "contracts/GUniPool.sol:GUniPool",
        "label": "_manager",
        "offset": 0,
        "slot": "151",
        "type": "t_address"
      },
      {
        "astId": 6031,
        "contract": "contracts/GUniPool.sol:GUniPool",
        "label": "lowerTick",
        "offset": 20,
        "slot": "151",
        "type": "t_int24"
      },
      {
        "astId": 6033,
        "contract": "contracts/GUniPool.sol:GUniPool",
        "label": "upperTick",
        "offset": 23,
        "slot": "151",
        "type": "t_int24"
      },
      {
        "astId": 6035,
        "contract": "contracts/GUniPool.sol:GUniPool",
        "label": "gelatoRebalanceBPS",
        "offset": 26,
        "slot": "151",
        "type": "t_uint16"
      },
      {
        "astId": 6037,
        "contract": "contracts/GUniPool.sol:GUniPool",
        "label": "gelatoWithdrawBPS",
        "offset": 28,
        "slot": "151",
        "type": "t_uint16"
      },
      {
        "astId": 6039,
        "contract": "contracts/GUniPool.sol:GUniPool",
        "label": "gelatoSlippageBPS",
        "offset": 30,
        "slot": "151",
        "type": "t_uint16"
      },
      {
        "astId": 6041,
        "contract": "contracts/GUniPool.sol:GUniPool",
        "label": "gelatoSlippageInterval",
        "offset": 0,
        "slot": "152",
        "type": "t_uint32"
      },
      {
        "astId": 6043,
        "contract": "contracts/GUniPool.sol:GUniPool",
        "label": "managerFeeBPS",
        "offset": 4,
        "slot": "152",
        "type": "t_uint16"
      },
      {
        "astId": 6045,
        "contract": "contracts/GUniPool.sol:GUniPool",
        "label": "managerTreasury",
        "offset": 6,
        "slot": "152",
        "type": "t_address"
      },
      {
        "astId": 6047,
        "contract": "contracts/GUniPool.sol:GUniPool",
        "label": "managerBalance0",
        "offset": 0,
        "slot": "153",
        "type": "t_uint256"
      },
      {
        "astId": 6049,
        "contract": "contracts/GUniPool.sol:GUniPool",
        "label": "managerBalance1",
        "offset": 0,
        "slot": "154",
        "type": "t_uint256"
      },
      {
        "astId": 6051,
        "contract": "contracts/GUniPool.sol:GUniPool",
        "label": "gelatoBalance0",
        "offset": 0,
        "slot": "155",
        "type": "t_uint256"
      },
      {
        "astId": 6053,
        "contract": "contracts/GUniPool.sol:GUniPool",
        "label": "gelatoBalance1",
        "offset": 0,
        "slot": "156",
        "type": "t_uint256"
      },
      {
        "astId": 6056,
        "contract": "contracts/GUniPool.sol:GUniPool",
        "label": "pool",
        "offset": 0,
        "slot": "157",
        "type": "t_contract(IUniswapV3Pool)2339"
      },
      {
        "astId": 6059,
        "contract": "contracts/GUniPool.sol:GUniPool",
        "label": "token0",
        "offset": 0,
        "slot": "158",
        "type": "t_contract(IERC20)863"
      },
      {
        "astId": 6062,
        "contract": "contracts/GUniPool.sol:GUniPool",
        "label": "token1",
        "offset": 0,
        "slot": "159",
        "type": "t_contract(IERC20)863"
      }
    ],
    "types": {
      "t_address": {
        "encoding": "inplace",
        "label": "address",
        "numberOfBytes": "20"
      },
      "t_array(t_uint256)45_storage": {
        "base": "t_uint256",
        "encoding": "inplace",
        "label": "uint256[45]",
        "numberOfBytes": "1440"
      },
      "t_array(t_uint256)49_storage": {
        "base": "t_uint256",
        "encoding": "inplace",
        "label": "uint256[49]",
        "numberOfBytes": "1568"
      },
      "t_array(t_uint256)50_storage": {
        "base": "t_uint256",
        "encoding": "inplace",
        "label": "uint256[50]",
        "numberOfBytes": "1600"
      },
      "t_bool": {
        "encoding": "inplace",
        "label": "bool",
        "numberOfBytes": "1"
      },
      "t_contract(IERC20)863": {
        "encoding": "inplace",
        "label": "contract IERC20",
        "numberOfBytes": "20"
      },
      "t_contract(IUniswapV3Pool)2339": {
        "encoding": "inplace",
        "label": "contract IUniswapV3Pool",
        "numberOfBytes": "20"
      },
      "t_int24": {
        "encoding": "inplace",
        "label": "int24",
        "numberOfBytes": "3"
      },
      "t_mapping(t_address,t_mapping(t_address,t_uint256))": {
        "encoding": "mapping",
        "key": "t_address",
        "label": "mapping(address => mapping(address => uint256))",
        "numberOfBytes": "32",
        "value": "t_mapping(t_address,t_uint256)"
      },
      "t_mapping(t_address,t_uint256)": {
        "encoding": "mapping",
        "key": "t_address",
        "label": "mapping(address => uint256)",
        "numberOfBytes": "32",
        "value": "t_uint256"
      },
      "t_string_storage": {
        "encoding": "bytes",
        "label": "string",
        "numberOfBytes": "32"
      },
      "t_uint16": {
        "encoding": "inplace",
        "label": "uint16",
        "numberOfBytes": "2"
      },
      "t_uint256": {
        "encoding": "inplace",
        "label": "uint256",
        "numberOfBytes": "32"
      },
      "t_uint32": {
        "encoding": "inplace",
        "label": "uint32",
        "numberOfBytes": "4"
      }
    }
  }
}