{
  "address": "0x08B87749b379f5BCA1d74A7B3d4e9f3DeD41C706",
  "abi": [
    {
      "inputs": [
        {
          "internalType": "address",
          "name": "implementationAddress",
          "type": "address"
        },
        {
          "internalType": "address",
          "name": "adminAddress",
          "type": "address"
        },
        {
          "internalType": "bytes",
          "name": "data",
          "type": "bytes"
        }
      ],
      "stateMutability": "payable",
      "type": "constructor"
    },
    {
      "anonymous": false,
      "inputs": [
        {
          "indexed": true,
          "internalType": "address",
          "name": "previousAdmin",
          "type": "address"
        },
        {
          "indexed": true,
          "internalType": "address",
          "name": "newAdmin",
          "type": "address"
        }
      ],
      "name": "ProxyAdminTransferred",
      "type": "event"
    },
    {
      "anonymous": false,
      "inputs": [
        {
          "indexed": true,
          "internalType": "address",
          "name": "previousImplementation",
          "type": "address"
        },
        {
          "indexed": true,
          "internalType": "address",
          "name": "newImplementation",
          "type": "address"
        }
      ],
      "name": "ProxyImplementationUpdated",
      "type": "event"
    },
    {
      "stateMutability": "payable",
      "type": "fallback"
    },
    {
      "inputs": [],
      "name": "proxyAdmin",
      "outputs": [
        {
          "internalType": "address",
          "name": "",
          "type": "address"
        }
      ],
      "stateMutability": "view",
      "type": "function"
    },
    {
      "inputs": [
        {
          "internalType": "bytes4",
          "name": "id",
          "type": "bytes4"
        }
      ],
      "name": "supportsInterface",
      "outputs": [
        {
          "internalType": "bool",
          "name": "",
          "type": "bool"
        }
      ],
      "stateMutability": "view",
      "type": "function"
    },
    {
      "inputs": [
        {
          "internalType": "address",
          "name": "newAdmin",
          "type": "address"
        }
      ],
      "name": "transferProxyAdmin",
      "outputs": [],
      "stateMutability": "nonpayable",
      "type": "function"
    },
    {
      "inputs": [
        {
          "internalType": "address",
          "name": "newImplementation",
          "type": "address"
        }
      ],
      "name": "upgradeTo",
      "outputs": [],
      "stateMutability": "nonpayable",
      "type": "function"
    },
    {
      "inputs": [
        {
          "internalType": "address",
          "name": "newImplementation",
          "type": "address"
        },
        {
          "internalType": "bytes",
          "name": "data",
          "type": "bytes"
        }
      ],
      "name": "upgradeToAndCall",
      "outputs": [],
      "stateMutability": "payable",
      "type": "function"
    },
    {
      "stateMutability": "payable",
      "type": "receive"
    }
  ],
  "transactionHash": "0xfa9a97a23c9b357c5ed6cbec1086e7e7a45c2a7a2bebb1b2350f5f25bd261547",
  "args": [
    "0x87fe34053bfBF5B278988bd150e9F8da72ca1bC3",
    "0xB47C8e4bEb28af80eDe5E5bF474927b110Ef2c0e",
    "0xc0c53b8b000000000000000000000000e292cf4e316191cbfebd74909356df3cd9455e96000000000000000000000000b47c8e4beb28af80ede5e5bf474927b110ef2c0e000000000000000000000000b47c8e4beb28af80ede5e5bf474927b110ef2c0e"
  ],
  "solcInputHash": "f1f932b5297d788fce5c0abb03e1e395",
  "bytecode": "0x6080604052604051610992380380610992833981016040819052610022916101de565b61002c838261003d565b61003582610119565b5050506102ca565b7f360894a13ba1a3210667c828492db98dca3e2076cc3735a920a3ca505d382bbc8054908390556040516001600160a01b0380851691908316907f5570d70a002632a7b0b3c9304cc89efb62d8da9eca0dbd7752c83b737906829690600090a3815115610114576000836001600160a01b0316836040516100be91906102ae565b600060405180830381855af49150503d80600081146100f9576040519150601f19603f3d011682016040523d82523d6000602084013e6100fe565b606091505b5050905080610112573d806000803e806000fd5b505b505050565b60006101316000805160206109728339815191525490565b90508160008051602061097283398151915255816001600160a01b0316816001600160a01b03167fdf435d422321da6b195902d70fc417c06a32f88379c20dd8f2a8da07088cec2960405160405180910390a35050565b80516001600160a01b038116811461019f57600080fd5b919050565b634e487b7160e01b600052604160045260246000fd5b60005b838110156101d55781810151838201526020016101bd565b50506000910152565b6000806000606084860312156101f357600080fd5b6101fc84610188565b925061020a60208501610188565b60408501519092506001600160401b038082111561022757600080fd5b818601915086601f83011261023b57600080fd5b81518181111561024d5761024d6101a4565b604051601f8201601f19908116603f01168101908382118183101715610275576102756101a4565b8160405282815289602084870101111561028e57600080fd5b61029f8360208301602088016101ba565b80955050505050509250925092565b600082516102c08184602087016101ba565b9190910192915050565b610699806102d96000396000f3fe60806040526004361061004e5760003560e01c806301ffc9a71461009b5780633659cfe6146100d05780633e47158c146100f05780634f1ef2861461011d5780638356ca4f1461013057610091565b366100915760405162461bcd60e51b815260206004820152600e60248201526d115512115497d491529150d5115160921b60448201526064015b60405180910390fd5b610099610150565b005b3480156100a757600080fd5b506100bb6100b63660046104c7565b610189565b60405190151581526020015b60405180910390f35b3480156100dc57600080fd5b506100996100eb36600461050d565b61026f565b3480156100fc57600080fd5b506101056102c3565b6040516001600160a01b0390911681526020016100c7565b61009961012b366004610528565b6102d2565b34801561013c57600080fd5b5061009961014b36600461050d565b61034f565b6000805160206106448339815191525460003681823780813683855af491503d8082833e82801561017f578183f35b8183fd5b50505050565b60006301ffc9a760e01b6001600160e01b0319831614806101ba57506307f5828d60e41b6001600160e01b03198316145b156101c757506001919050565b6001600160e01b031980831690036101e157506000919050565b600080516020610644833981519152546040516301ffc9a760e01b81526001600160e01b0319841660048201526001600160a01b038216906301ffc9a790602401602060405180830381865afa92505050801561025b575060408051601f3d908101601f19168201909252610258918101906105aa565b60015b6102685750600092915050565b9392505050565b610277610390565b6001600160a01b0316336001600160a01b0316146102a75760405162461bcd60e51b8152600401610088906105cc565b6102c081604051806020016040528060008152506103a3565b50565b60006102cd610390565b905090565b6102da610390565b6001600160a01b0316336001600160a01b03161461030a5760405162461bcd60e51b8152600401610088906105cc565b61034a8383838080601f0160208091040260200160405190810160405280939291908181526020018383808284376000920191909152506103a392505050565b505050565b610357610390565b6001600160a01b0316336001600160a01b0316146103875760405162461bcd60e51b8152600401610088906105cc565b6102c081610466565b6000805160206106248339815191525490565b6000805160206106448339815191528054908390556040516001600160a01b0380851691908316907f5570d70a002632a7b0b3c9304cc89efb62d8da9eca0dbd7752c83b737906829690600090a381511561034a576000836001600160a01b03168360405161041291906105f4565b600060405180830381855af49150503d806000811461044d576040519150601f19603f3d011682016040523d82523d6000602084013e610452565b606091505b5050905080610183573d806000803e806000fd5b6000610470610390565b90508160008051602061062483398151915255816001600160a01b0316816001600160a01b03167fdf435d422321da6b195902d70fc417c06a32f88379c20dd8f2a8da07088cec2960405160405180910390a35050565b6000602082840312156104d957600080fd5b81356001600160e01b03198116811461026857600080fd5b80356001600160a01b038116811461050857600080fd5b919050565b60006020828403121561051f57600080fd5b610268826104f1565b60008060006040848603121561053d57600080fd5b610546846104f1565b925060208401356001600160401b038082111561056257600080fd5b818601915086601f83011261057657600080fd5b81358181111561058557600080fd5b87602082850101111561059757600080fd5b6020830194508093505050509250925092565b6000602082840312156105bc57600080fd5b8151801515811461026857600080fd5b6020808252600e908201526d1393d517d055551213d49256915160921b604082015260600190565b6000825160005b8181101561061557602081860181015185830152016105fb565b50600092019182525091905056feb53127684a568b3173ae13b9f8a6016e243e63b6e8ee1178d6a717850b5d6103360894a13ba1a3210667c828492db98dca3e2076cc3735a920a3ca505d382bbca2646970667358221220f8092c6d4e38cdaacdb3c899e6c75d21baaeaba76b22f353673f931b1f0f8a9b64736f6c63430008130033b53127684a568b3173ae13b9f8a6016e243e63b6e8ee1178d6a717850b5d6103",
  "devdoc": {
    "kind": "dev",
    "methods": {},
    "version": 1
  },
  "userdoc": {
    "kind": "user",
    "methods": {},
    "notice": "Proxy implementing EIP173 for ownership management",
    "version": 1
  },
  "storageLayout": {
    "storage": [],
    "types": null
  }
}